:020000040000FA
:060000000A128A110C280F
:10000800FE00030EF1000A08F2000A128A111428F1
:100018000A128A110F28F70183010A128A11772818
:10002800831203138C1D19281A2870281412141B04
:100038001E281F282328941F222823282A2813082B
:10004800F0007008F70014139413141683160313A2
:10005800941A2F2830284C281419332834284C286F
:10006800831203131308F0007008F7008C1114169C
:1000780083160313141C412842283C2883120313B7
:1000880013088500A630F000F00B482800006D2802
:10009800941A4F2850286D28141D532854286D2869
:1000A800831203131308F0007008F7008316031374
:1000B800141083120313080893001416A630F000D6
:1000C800F00B642800008316031314186C286D289D
:1000D8006728831203138C1172088A00710E83003B
:1000E800FE0E7E0E09008316031788018901831608
:1000F8000313850188010330860070308F040F14C4
:100108008113151495148312031388018601850140
:10011800F601F60AF501F50A60300A128A11C620BE
:100128000A128A118312031306189B289C28A828F0
:1001380000300618013076060319A328A428A82839
:100148000130F400740888078618AB28AC28B62854
:1001580000308618013075060319B328B428B6286C
:1001680001308802003006180130F6000030861889
:100178000130F5000F30F4007408880596280A123B
:100188008A110C28F3007308831603139300363082
:1001980083120313940080308316031394000130F4
:1001A8009100871507168B170B17831203138C11F1
:0801B800831603138C150800E7
:04400E00D420FF3F7C
:00000001FF
