:020000040000FA
:060000000A128A110C280F
:10000800FE00030EF7000A08F8000A128A11832876
:100018000A128A110F28F001F101F201F301F4012B
:1000280083010A128A1118280330831603178800DF
:1000380089010330831603138500851670308F04F9
:100048000F149F131F129F12831203131F139F175E
:10005800C3309F05413083120313A300A30B32283A
:100068003528831203131F149F148B170B1783163D
:1000780003138C15831203138C11A001A101A20193
:1000880024300A128A11AD200A128A11F401F301F0
:1000980083120313850187019F1853285428502879
:1000A8001F0CA300230C0F39013A031D5C285D289F
:1000B80064281E08A3002308F300C3309F05752891
:1000C8001F0CA300230C0F39003A031D6C286D2860
:1000D80075281E08A3002308F4001F08C339043834
:1000E8009F00203083120313A300A30B792800007C
:1000F800831203139F1450280A128A110C288312A2
:1001080003138C1D88288928A3280A128A11CB205A
:100118000A128A11F6007608F2007203031D952868
:1001280096289D2874080A128A11DB200A128A115F
:10013800A32873080A128A11DB200A128A11831273
:1001480003138C1178088A00770E8300FE0E7E0E4A
:100158000900F900831603138712791DB428B528FE
:10016800BD288312031322088316031394008715EE
:10017800C52883120313200822048316031394004E
:1001880087117908831203132104940008000A12C6
:100198008A11D4200A128A11831203131308080043
:1001A80083160313141CD928DA28D4280800F5006C
:0A01B800750883120313930008007A
:04400E00D420FF3F7C
:00000001FF
