:020000040000FA
:060000000A128A110C280F
:10000800FE00030EF7000A08F8000A128A11DB281E
:100018000A128A110F280A128A115A210A128A1101
:10002800FC00F001F101F201F301F401F501FB011B
:1000380083010A128A1120280330831603178800C7
:10004800890103308316031385008701880107158A
:100058008816FF3092003F30831203139705170864
:10006800F0390C3897000F309500F0309D051D08C9
:10007800F0390C389D000F3095000F309B00CF30C1
:1000880097051D129D128C100330920412158C1CBA
:100098004E284F284B288C108316031307118812FB
:1000A80070308F040F14831203130C138316031379
:1000B8000C170B178B17831203139F1450300A1257
:1000C8008A1140210A128A11F00173080339FA00D3
:1000D8007A08F20073080439FA007A08F100720805
:1000E800031D772878287A28F2019A287203031DBD
:1000F8007E287F2884285530FA007A08F2009A284A
:1001080002307206031D89288A288F28AA30FA002F
:100118007A08F2009A2803307206031D942895285D
:100128009A28FF30FA007A08F2009A2804307106FB
:10013800031D9F28A028A528FF30FA007A08F1009F
:10014800AB287108031DA928AA28AB28F101700360
:10015800031DAF28B028C3287208031DB428B5288A
:10016800B928831203139501C1287208FA000310F5
:100178007A0C7C3E831203139500F001D228700894
:10018800031DC728C828D2287108FA0003107A0C62
:100198007C3E831203139B00F001F00AA630FA009C
:1001A800FA0BD428000069280A128A110C28831235
:1001B80003138C1DE028E12839291412141BE528A3
:1001C800E628EA28941FE928EA28F1281308F60007
:1001D8007608F40014139413141683160313941A50
:1001E800F628F72815291419FA28FB281529831247
:1001F80003131308F6007608F4008C1114168316FE
:100208000313141C0829092903298312031313084B
:10021800F6007608F300A630F600F60B1129000068
:100228003629941A182919293629141D1C291D291B
:100238003629831203131308F6007608F400831690
:100248000313141022308312031393001416A630DC
:10025800F600F60B2D290000831603131418352910
:1002680036293029831203138C1178088A00770EF7
:100278008300FE0E7E0E0900F90079088316031329
:1002880093003630831203139400803083160313CF
:10029800940001309100871507168B170B178312EE
:0E02A80003138C11831603138C150800083401
:04400E00D420FF3F7C
:00000001FF
