:020000040000FA
:060000000A128A110C280F
:10000800FE00030EF0000A08F1000A128A11792A8C
:100018000A128A110F2883120313BB01BC01BD0108
:10002800BE01BF01C001C101C201C301C4018301F6
:100038000A128A111F280A128A113A220A128A11F0
:10004800831603178801890183160313850103307A
:10005800860080308700880170308F040F140030CC
:1000680083120313A8000130A7008630A600A03031
:10007800A5000A128A11DA210A128A110A128A11B3
:1000880088210A128A1183120313850186018701C8
:1000980088010A128A1170220A128A1138300A124B
:1000A8008A115C220A128A11AC300A128A115C2267
:1000B8000A128A1133300A128A115C220A128A1132
:1000C80000300A128A115C220A128A110A128A1155
:1000D80067220A128A11D03083120313AE00C93086
:1000E800AD00AD0B7528AE0B75280A128A11702267
:1000F8000A128A1139300A128A115C220A128A11EC
:1001080000300A128A1112220A128A11831203136A
:10011800AD002D08BB0000300A128A1112220A1203
:100128008A1183120313AD002D08BC0000300A1297
:100138008A1112220A128A1183120313AD002D08A4
:10014800BD0000300A128A1112220A128A11831283
:100158000313AD002D08BE0000300A128A111222C6
:100168000A128A1183120313AD002D08BF00003054
:100178000A128A1112220A128A1183120313AD007D
:100188002D08C0000A128A1167220A128A11033048
:1001980083120313AF000830AE007630AD00AD0B0C
:1001A800D328AE0BD328AF0BD32800008312031338
:1001B8003E08AD00AE01AF01B0013D08B100B2018B
:1001C8003108B200B1013108B3003208B400B501FA
:1001D800B6013C08B700B801B901BA0110300310E4
:1001E800B70DB80DB90DBA0DFF3E031DF32837083A
:1001F800B3043808B4043908B5043A08B604330817
:10020800AD043408AE043508AF043608B004043031
:100218000310B00CAF0CAE0CAD0CFF3E031D0C2947
:100228003008C4002F08C3002E08C2002D08C100E2
:100238004D280A128A110C28003083120313A300D8
:100248000030A2000030A1000030A000750874043E
:10025800730472040319312932297F29A401A40ADD
:1002680042290130FA000310F20DF30DF40DF50DDB
:10027800FA0B37290130FA007A08A407F51F452937
:10028800462935290130FA000310A00DA10DA20D51
:10029800A30DFA0B482975087902031D5D29740816
:1002A8007802031D5D2973087702031D5D29720812
:1002B8007602031C6029612970297208F602730806
:1002C800031C730FF7027408031C740FF8027508F7
:1002D800031C750FF902201401300310F50CF40CFF
:1002E800F30CF20CFF3E031D71290130A402031D1B
:1002F8007E297F2946292308F5002208F4002108D1
:10030800F3002008F20008006830F400E430F3003D
:10031800F30B8C29F40B8C2900000A128A11702225
:100328000A128A1138300A128A115C220A128A11BA
:10033800BA300A128A115C220A128A110A128A1128
:1003480067220A128A113430F400F130F300F30BFB
:10035800AB29F40BAB29B0290A128A1170220A12B0
:100368008A1138300A128A115C220A128A11E13085
:100378000A128A115C220A128A11AC300A128A11F6
:100388005C220A128A110A128A1167220A128A1139
:100398000430F5008E30F4001230F300F30BD2294C
:1003A800F40BD229F50BD22900000800283083125B
:1003B8000313940083160313910183120313250872
:1003C800A9002608AA002708AB002808AC000230BC
:1003D8000310A90DAA0DAB0DAC0DFF3E031DEC29B2
:1003E8002C08F5002B08F4002A08F3002908F2006D
:1003F8000030F9007A30F8001230F7000030F600CB
:100408000A128A1120210A128A117208FF3E8316E5
:10041800031393009401871507160800F3000A12C6
:100428008A114F220A128A118316031391150A1290
:100438008A114F220A128A11831203131308F20039
:100448007208F4000A128A114F220A128A117303E1
:10045800031D2F2A302A342A831603139112372AB0
:1004680083160313911611167408080083160313D4
:1004780018121815831603178715CF308316031320
:1004880099009A01831203139817181318168316E4
:10049800031398160800831603131419542A552AAF
:1004A8004F2A11081F39031D5A2A5B2A4F2A0800B0
:1004B800F2000A128A114F220A128A117208831254
:1004C8000313930008000A128A114F220A128A1194
:1004D80083160313111508000A128A114F220A12F3
:1004E8008A11831603131114080071088A00700E0C
:0804F8008300FE0E7E0E0900D8
:04400E00D420FF3F7C
:00000001FF
