:020000040000FA
:060000000A128A110C280F
:10000800FE00030EF0000A08F1000A128A157E2C81
:100018000A128A110F280A128A11FB270A128A115A
:10002800EF008313A0308400B2300A128A158524A9
:100038000A128A11E901EA01EB01EC01ED01EE0176
:10004800F801F901FA0183010A128A15862D831233
:1000580003132D088039B2003208B7002D08B2000A
:100068003207B3003308BD00AC1F3B283C283D28AD
:100078003D143D0803194128422851283D0A031D13
:10008800462847284F280030AD000030AC0000302B
:10009800AB000030AA00AC1759280030AD00003082
:1000A800AC000030AB000030AA0031088039B20043
:1000B8003208B7063108B2003207B3003308B80077
:1000C800B01F6728682869283814380803196D286C
:1000D8006E287D28380A031D722873287B28003073
:1000E800B1000030B0000030AF000030AE00B017F3
:1000F80085280030B1000030B0000030AF0000307B
:10010800AE003808031989288A288F283D08031D5E
:100118008E288F2898280030AD000030AC000030C1
:10012800AB000030AA008B2B2A08B2003208F2007C
:1001380030080A128A150B250A128A1173088312CD
:100148000313C3007208C2004208B200B301B4012D
:10015800B5013508BC003408BB003308BA003208C2
:10016800B9004308B200B301B401B5013508C100B4
:100178003408C0003308BF003208BE002B08B200A4
:100188003208F2002F080A128A150B250A128A1162
:10019800730883120313C3007208C2004208B20036
:1001A800B301B401B5013208B907330803110318C4
:1001B800013E0319E028BA07340803110318013E69
:1001C8000319E728BB07350803110318013E031973
:1001D800EE28BC074308B200B301B401B5013208E8
:1001E800BE07330803110318013E0319FC28BF0793
:1001F800340803110318013E03190329C007350801
:1002080003110318013E03190A29C1072C08B2007B
:100218003208F2002E080A128A150B250A128A11D2
:10022800730883120313C3007208C2004208B200A5
:10023800B301B401B5013208B90733080311031833
:10024800013E03192829BA07340803110318013E8F
:1002580003192F29BB07350803110318013E031999
:100268003629BC074308B200B301B401B50132080E
:10027800BE07330803110318013E03194429BF07B9
:10028800340803110318013E03194B29C007350828
:1002980003110318013E03195229C1070830B2009F
:1002A8000310B90DBA0DBB0DBC0DB20B54292B08A8
:1002B800B2003208F2002E080A128A150B250A121B
:1002C8008A11730883120313C3007208C20042081C
:1002D800B2004308B300B401B5013208B9073308C6
:1002E80003110318013E03197A29BA0734080311C8
:1002F8000318013E03198129BB07350803110318A8
:10030800013E03198829BC072A08B2003208F20006
:100318002F080A128A150B250A128A1173088312EC
:100328000313C3007208C2004208B2004308B300B6
:10033800B401B5013208B907330803110318013EA7
:100348000319A729BA07340803110318013E031932
:10035800AE29BB07350803110318013E0319B52957
:10036800BC070830B2000310B90DBA0DBB0DBC0DA7
:10037800B20BB7292A08B2003208F2002E080A1276
:100388008A150B250A128A11730883120313C300F6
:100398007208C2004208B2004308B300B401B501B4
:1003A8003208B907330803110318013E0319DD2980
:1003B800BA07340803110318013E0319E429BB07DF
:1003C800350803110318013E0319EB29BC072B0854
:1003D800B2003208F20030080A128A150B250A12F8
:1003E8008A11730883120313C3007208C2004208FB
:1003F800B2004308B300B401B5013208BE073308A0
:1004080003110318013E03190A2ABF073408031110
:100418000318013E0319112AC007350803110318F0
:10042800013E0319182AC1072C08B2003208F2004D
:100438002F080A128A150B250A128A1173088312CB
:100448000313C3007208C2004208B2004308B30095
:10045800B401B5013208BE07330803110318013E81
:100468000319372ABF07340803110318013E03197B
:100478003E2AC007350803110318013E0319452A0F
:10048800C1072C08B2003208F20030080A128A1597
:100498000B250A128A11730883120313C30072080A
:1004A800C2004208B2004308B300B401B5010830E5
:1004B8000310B20DB30DB40DB50DFF3E031D5C2A3C
:1004C8003208BE07330803110318013E03196D2AC9
:1004D800BF07340803110318013E0319742AC00723
:1004E800350803110318013E03197B2AC10739088F
:1004F800B2003A08B3003B08B4003C08B500183015
:100508000310B50CB40CB30CB20CFF3E031D842AC7
:100518003208BE07330803110318013E0319952A50
:10052800BF07340803110318013E03199C2AC007AA
:10053800350803110318013E0319A32AC10708301F
:10054800B2000310B90DBA0DBB0DBC0DB20BA52A34
:100558003D083807B200B301B30D3208823EC2002D
:1005680033080318013EFF3EC300D72A0130B2000A
:100578000310BE0DBF0DC00DC10DB20BBC2ABC1FB0
:10058800C62AC72AC82A3E140130B2000310B90D82
:10059800BA0DBB0DBC0DB20BCA2AFF30C207031837
:1005A800C30AFF30C307C01FDA2ADB2ABA2AB801F8
:1005B800BC1FDF2AE02AFC2AFF303905B200FF30D1
:1005C8003A05B300FF303B05B4007F303C05B50069
:1005D80035083404330432040319F32AF42AF72AB9
:1005E800B801B80AFC2A3E1CFA2AFB2AFC2AF42A7B
:1005F80038080319002B012B322B0130BE070030BD
:1006080003180130BF07003003180130C00700305D
:1006180003180130C107411C122B132B322B3E0843
:10062800B2003F08B3004008B4004108B5000130EB
:10063800B600350DB50CB40CB30CB20CB60B1D2BB3
:100648003508C1003408C0003308BF003208BE00B6
:100658000130C2070318C30A0030C3074308803AB1
:10066800FF0080307F02031D3B2BFF304202031C3A
:100678003E2B3F2B4A2B7F3083120313C10080305F
:10068800C0000030BF000030BE007F2B8312031370
:100698004308803AFF0080307F02031D552B01304C
:1006A80042020318582B592B652B00308312031371
:1006B800C1000030C0000030BF000030BE00B701EC
:1006C8007F2B831203134208B2003208BD00FF30AB
:1006D800BE05FF30BF057F30C0050030C1053D1C99
:1006E800762B772B782BC0173D08B2000310320CFD
:1006F800B3003308C1003708B2003208C10441080A
:10070800AD004008AC003F08AB003E08AA00080056
:100718008312031347088039CC004C08D4004708DB
:10072800CC004C07CD004D08D600C61F9C2B9D2B36
:100738009E2B561456080319A22BA32BB32B560A2B
:10074800031DA72BA82BB02B0030C7000030C60014
:100758000030C5000030C400C617C701BB2B0030ED
:10076800C7000030C6000030C5000030C4004B0888
:100778008039CC004C08D500550854060319C52B00
:10078800C62BC72B54174B08CC004C07CD004D087F
:10079800D500CA1FD02BD12BD22B551455080319BD
:1007A800D62BD72BE72B550A031DDB2BDC2BE42B91
:1007B8000030CB000030CA000030C9000030C8004B
:1007C800CA17CB01EF2B0030CB000030CA00003035
:1007D800C9000030C800560855020318F42BF52B41
:1007E800392C541FF82BF92BFD2B8030CC004C08EA
:1007F800D4065608CC004C08D7005508CC004C0845
:10080800D6005708CC004C08D5004408CC004C084A
:10081800D7004808CC004C08C4005708CC004C0846
:10082800C8004508CC004C08D7004908CC004C0843
:10083800C5005708CC004C08C9004608CC004C0835
:10084800D7004A08CC004C08C6005708CC004C0812
:10085800CA004708CC004C08D7004B08CC004C080D
:10086800C7005708CC004C08CB00D7015508CC006E
:10087800CD014D08CF0056084C02CE00031CCF0313
:100888004F08803AFF0080307F02031D4D2C1A303C
:100898004E02031C502C512C8E2C83120313470834
:1008A800460445044404031D5A2C5C2C01305D2C7D
:1008B8000030CC004C08D7000030C7000030C6001C
:1008C8000030C5000030C4005508CC004C08D600E4
:1008D800962C571C702C712C7A2C5708CC000310BE
:1008E8004C0C0138CD004D08D7007C2C0310D70CD8
:1008F800441C7F2C802C812CD7170130CC00470D4D
:10090800C70CC60CC50CC40CCC0B832C0130CC0016
:100918004C08D6078312031355085602031C952C5E
:10092800962C6D2C541B992C9A2CE52C5608031DDB
:100938009E2C9F2CA82C0030C7000030C600003029
:10094800C5000030C400132E4808C4074908031125
:100958000318013E0319B12CC5074A0803110318EF
:10096800013E0319B82CC6074B0803110318013EB2
:100978000319BF2CC707471CC22CC32C992D571C21
:10098800C62CC72CD02C5708CC0003104C0C0138AF
:10099800CD004D08D700D22C0310D70C441CD52C01
:1009A800D62CD72CD7170130CC00470DC70CC60C56
:1009B800C50CC40CCC0BD92C0130CC004C08D60784
:1009C800992D4708803AFF004B08803A7F02031DA3
:1009D800F72C4A084602031DF72C49084502031D57
:1009E800F72C480844020318FA2CFB2C532DFF302F
:1009F800CC00FF30CD00FF30CE00FF30CF004808DC
:100A0800D0004908D1004A08D2004B08D300440856
:100A1800D0024508031C450F122D132DD10246089C
:100A2800031C460F182D192DD2024708031C470F27
:100A38001E2D1F2DD3025008CC0751080318510F43
:100A4800262D272DCD0752080318520F2C2D2D2D9A
:100A5800CE0753080318530ACF074F08C7004E089C
:100A6800C6004D08C5004C08C4008030CC004C08B6
:100A7800D406D709D70A5708031D432D442D612DE5
:100A88000130C407003003180130C50700300318CF
:100A98000130C607003003180130C707612D480828
:100AA800C4024908031C490FC5024A08031C4A0F1F
:100AB800C6024B08031C4B0FC702470846044504EF
:100AC8004404031D682D692D952D5708031D6D2DB0
:100AD8006E2D952D0030C7000030C6000030C500CF
:100AE8000030C400132E0130CC000310C40DC50D16
:100AF800C60DC70DCC0B792DD71F832D842D852DC1
:100B08004414571C882D892D8C2D0314D70D8E2D38
:100B18000310D70D56080319922D932D952D0130EA
:100B2800D602C61F982D992D772DD501D71F9D2D3B
:100B38009E2DAC2D57087F390319A32DA42DA72D61
:100B4800D501D50AAC2D441CAA2DAB2DAC2DA42D56
:100B580055080319B02DB12DE52D0130C40700301B
:100B680003180130C507003003180130C6070030EC
:100B780003180130C707471CC22DC32DE52D4408B3
:100B8800CC004508CD004608CE004708CF0001300C
:100B9800D0004F0DCF0CCE0CCD0CCC0CD00BCD2DE6
:100BA8004F08C7004E08C6004D08C5004C08C400D1
:100BB800560A0319E02DE12DE52D0130CC004C0833
:100BC800D607560A0319E92DEA2DEF2D5608031DFD
:100BD800EE2DEF2DFD2D0030C7000030C60000308F
:100BE800C5000030C4005608031DFB2DFC2DFD2D4B
:100BF800D401561C002E012E032EC617072E7F3057
:100C0800CC004C08C6055608CC0003104C0CCD008F
:100C18004D08C700D41F112E122E132EC717080017
:100C280083120313A400240803191B2E1C2E302E34
:100C3800F51F1F2E202E302E7209A6007309A7005B
:100C48007409A8007509A900A60A0319A70A0319B7
:100C5800A80A0319A90A382E7508A9007408A8005B
:100C68007308A7007208A600750874047304720458
:100C7800031D3F2E402E492E0030F5000030F400B1
:100C88000030F3000030F200CF2E9630A00020088C
:100C9800A5005B2E0130A0002008A5070130031035
:100CA800A90CA80CA70CA60CFF3E031D532EFE3062
:100CB8002905031D602E612E4E2E7D2E0130A000C9
:100CC8002008A5070130A607003003180130A70740
:100CD800003003180130A807003003180130A907B5
:100CE80001300310A90CA80CA70CA60CFF3E031D8D
:100CF800752EFF302905031D822E832E622E8F2E1E
:100D08000130A5020130A0000310A60DA70DA80D03
:100D1800A90DA00B882EA81B922E932E992E023077
:100D280025020318982E992E842E25189C2E9D2E68
:100D3800A52EFF30A605FF30A7057F30A805FF3098
:100D4800A9050310A50C2508A000A101A201A30173
:100D580018300310A00DA10DA20DA30DFF3E031D19
:100D6800AD2E2008A6042108A7042208A8042308F9
:100D7800A90424080319C12EC22EC72EF51FC52E9B
:100D8800C62EC72EA9172908F5002808F400270839
:100D9800F3002608F2000800031083120313620D03
:100DA800630DE4006408F7007708031DDC2EDD2ED0
:100DB800E62E0030E3000030E2000030E1000030B1
:100DC800E0004B2F6008E4006108E5006208E600D7
:100DD8006308E7001F300310E70CE60CE50CE40C91
:100DE800FF3E031DEF2E6408E8006808F600E217CE
:100DF800FF30E005FF30E105FF30E2050030E30594
:100E08009630F702F71F092F0A2F242F7708803A08
:100E1800973E0318102F112F122FDD2E01300310CB
:100E2800E30CE20CE10CE00CFF3E031D132F013034
:100E3800E4006408F707031D222F232F122F3B2FEE
:100E480020307702031C292F2A2F362FDD2E013060
:100E5800E4000310E00DE10DE20DE30DE40B2D2F8E
:100E68000130F7027708031D3A2F3B2F2B2F760806
:100E780003193F2F402F4B2FE009E109E209E3094D
:100E8800E00A0319E10A0319E20A0319E30A080050
:100E98000030F6000030F5000030F4000030F300B8
:100EA80083120313230822042104200403195D2F4D
:100EB8005E2FAB2FF701F70A6E2F0130F2000310F7
:100EC800A00DA10DA20DA30DF20B632F0130F200AE
:100ED8007208F707A31F712F722F612F0130F200DC
:100EE8000310F30DF40DF50DF60DF20B742F230816
:100EF8002702031D892F22082602031D892F210896
:100F08002502031D892F20082402031C8C2F8D2FF6
:100F18009C2F2008A4022108031C210FA5022208E7
:100F2800031C220FA6022308031C230FA702731415
:100F380001300310A30CA20CA10CA00CFF3E031D52
:100F48009D2F0130F702031DAA2FAB2F722F7608B1
:100F5800A3007508A2007408A1007308A000080087
:100F6800283083120313940083160313910183120C
:100F780003132808AC002908AD002A08AE002B0886
:100F8800AF0002300310AC0DAD0DAE0DAF0DFF3E3E
:100F9800031DC62F2F08A3002E08A2002D08A100AC
:100FA8002C08A0000030A7007A30A6001230A50057
:100FB8000030A4000A128A114C270A128A118312DF
:100FC80003132008FF3E831603139300940187152B
:100FD80007160800831603131419F32FF42FEE2FA6
:100FE80011081F39031DF92FFA2FEE2F08000834B6
:1018FC0071088A00700E8300FE0E7E0E09006400D3
:10190C008001840A0406031900340406862C0A128A
:10191C008A11EE270A128A15831603131114080074
:10192C000A128A11EE270A128A158316031311154F
:10193C000800F2000A128A11EE270A128A157208A0
:10194C00831203139300080083160313181218153F
:10195C00831603178715CF308316031399009A014A
:10196C00831203139817181318168316031398165B
:10197C000800803083120313DB065F08C7005E0883
:10198C00C6005D08C5005C08C4005B08CB005A08A3
:10199C00CA005908C9005808C8000A128A118C23B9
:1019AC000A128A15831203134708DB004608DA0073
:1019BC004508D9004408D8000800F3000A128A111F
:1019CC00EE270A128A158316031391150A128A112F
:1019DC00EE270A128A15831203131308F2007208F9
:1019EC00F4000A128A11EE270A128A157303031DDA
:1019FC00002D012D052D831603139112082D83162E
:101A0C000313911611167408080083120313A40013
:101A1C00A001A1017208F400F5017408A200750878
:101A2C00A300241C1A2D1B2D212D2208A0070318FE
:101A3C00A10A2308A10701300310A20DA30DFF3E3C
:101A4C00031D222D0310A40C2408031D2E2D2F2D55
:101A5C00172D2108F3002008F20008006830F4006C
:101A6C00E430F300F30B382DF40B382D00000A1280
:101A7C008A158D240A128A1538300A128A159F2469
:101A8C000A128A15BA300A128A159F240A128A156C
:101A9C000A128A1596240A128A153430F400F13091
:101AAC00F300F30B572DF40B572D5C2D0A128A15EE
:101ABC008D240A128A1538300A128A159F240A12AC
:101ACC008A15E1300A128A159F240A128A15AC3045
:101ADC000A128A159F240A128A150A128A1596244C
:101AEC000A128A150430F5008E30F4001230F3001F
:101AFC00F30B7E2DF40B7E2DF50B7E2D00000800D4
:101B0C000A128A15AA240A128A1583160317880149
:101B1C00890183160313850103308600803087000A
:101B2C00880170308F040F14003083120313AB0044
:101B3C000130AA008630A900A030A8000A128A1130
:101B4C00B4270A128A150A128A1534250A128A1524
:101B5C008312031385018601870188010A128A15F5
:101B6C008D240A128A1538300A128A159F240A12FB
:101B7C008A15AC300A128A159F240A128A15333042
:101B8C000A128A159F240A128A1500300A128A1525
:101B9C009F240A128A150A128A1596240A128A158B
:101BAC00D03083160313B300C930B200B20BDC2D56
:101BBC00B30BDC2D0A128A158D240A128A153930C2
:101BCC000A128A159F240A128A1500300A128A15E5
:101BDC00E3240A128A1583160313B2003208A000FC
:101BEC0000300A128A15E3240A128A15831603138D
:101BFC00B2003208A10000300A128A15E3240A123E
:101C0C008A1583160313B2003208A20000300A12A0
:101C1C008A15E3240A128A1583160313B2003208BC
:101C2C00A30000300A128A15E3240A128A158316BF
:101C3C000313B2003208A40000300A128A15E32400
:101C4C000A128A1583160313B2003208A5000A1271
:101C5C008A1596240A128A15033083160313B400CE
:101C6C000830B3007630B200B20B3A2EB30B3A2EDA
:101C7C00B40B3A2E0000831603132308B200B301F1
:101C8C00B401B5012208B600B7013608B700B60199
:101C9C003608B8003708B900BA01BB012108BC00EE
:101CAC00BD01BE01BF0110300310BC0DBD0DBE0D3A
:101CBC00BF0DFF3E031D5A2E3C08B8043D08B90465
:101CCC003E08BA043F08BB043808B2043908B30410
:101CDC003A08B4043B08B50404300310B50CB40C3A
:101CEC00B30CB20CFF3E031D732E3508B100340843
:101CFC00B0003308AF003208AE003108F5003008F0
:101D0C00F4002F08F3002E08F20000300A128A119A
:101D1C0014260A128A15750883120313B10074086D
:101D2C00B0007308AF007208AE003830AD00C73099
:101D3C00AC003A30AB00BD30AA000A128A112B203D
:101D4C000A128A15831203132D08E3002C08E200F3
:101D5C002B08E1002A08E0000A128A11D0260A1288
:101D6C008A1583120313600883160313B200B301A0
:101D7C00320883120313E90083160313330883120A
:101D8C000313EA00EA1FCB2ECC2ECE2EE901EA017A
:101D9C006A08803AFF0080307F02031DD72E653021
:101DAC006902031CDA2EDB2EE12E6430831203133E
:101DBC00E9000030EA00831603132508B200B301D2
:101DCC00B401B5012408B600B7013608B700B60156
:101DDC003608B8003708B900BA01BB0123080F391F
:101DEC00BC00BD01BE01BF0110300310BC0DBD0D08
:101DFC00BE0DBF0DFF3E031DFB2E3C08B8043D0875
:101E0C00B9043E08BA043F08BB0432083804AA00DF
:101E1C0033083904AB0034083A04AC0035083B04F1
:101E2C00AD00C23083120313C7004830C600003027
:101E3C00C5000030C4003930AD004830AC0047302C
:101E4C00AB002C30AA00831603132D08F5002C08C8
:101E5C00F4002B08F3002A08F20000300A128A1151
:101E6C0014260A128A15750883120313B10074081C
:101E7C00B0007308AF007208AE000A128A112B2052
:101E8C000A128A15831203132D08CB002C08CA00E2
:101E9C002B08C9002A08C8000A128A118C230A12BE
:101EAC008A1583120313470883160313A9008312A0
:101EBC000313460883160313A80083120313450863
:101ECC0083160313A700831203134408831603130A
:101EDC00A600290883120313E300831603132808B2
:101EEC0083120313E20083160313270883120313D0
:101EFC00E10083160313260883120313E0000A1271
:101F0C008A11D0260A128A158312031360088316CD
:101F1C000313B2003208F900290883120313DF00FF
:101F2C0083160313280883120313DE00831603138E
:101F3C00270883120313DD0083160313260883126C
:101F4C000313DC00790883160313B200B301B40148
:101F5C00B5013508F5003408F4003308F3003208F5
:101F6C00F20001300A128A1114260A128A15750819
:101F7C0083120313DB007408DA007308D9007208AB
:101F8C00D8000A128A15BF240A128A158312031369
:101F9C005B08B1005A08B0005908AF005808AE00F1
:101FAC004130AD002030AC000030AB000030AA0056
:101FBC000A128A112B200A128A15831203132D0878
:101FCC00E3002C08E2002B08E1002A08E0000A12CA
:101FDC008A11D0260A128A158312031360088316FD
:101FEC000313B600360883120313EE00B42D0A1245
:041FFC008A110C2812
:04400E00D420FF3F7C
:00000001FF
