:020000040000FA
:060000000A128A110C280F
:10000800FE00030EF0000A08F1000A128A11282FD8
:100018000A128A110F280A128A112F270A128A1126
:10002800D40083133B30840054300A128A112027ED
:100038000A128A11FB01FA0183010A128A11242883
:100048000A128A11D5260A128A1183160317880103
:100058008901FF30831603138500803087007030D4
:100068008F040F14003083120313A9000130A80075
:100078008630A700A030A6000A128A11CD250A12E0
:100088008A110A128A1185250A128A11831203130A
:100098008501870188010A128A1117270A128A1115
:1000A80070300A128A1103270A128A11AC300A1218
:1000B8008A1103270A128A1133300A128A11032778
:1000C8000A128A1100300A128A1103270A128A11A9
:1000D8000A128A110E270A128A11C33083120313D7
:1000E800B400CC30B300B30B7728B40B77280000EA
:1000F8000A128A1117270A128A1171300A128A11F4
:1001080003270A128A1100300A128A112F260A12AE
:100118008A1183120313B3003308BB0000300A129C
:100128008A112F260A128A1183120313B300330887
:10013800BC0000300A128A112F260A128A11831273
:100148000313B3003308BD0000300A128A112F26AA
:100158000A128A1183120313B3003308BE00003059
:100168000A128A112F260A128A1183120313B30066
:100178003308BF0000300A128A112F260A128A118A
:1001880083120313B3003308C0000A128A110E2722
:100198000A128A11033083120313B5000830B40021
:1001A8007630B300B30BD628B40BD628B50BD628B7
:1001B8000000831203133E080F39B300B401B501E0
:1001C800B60110300310B30DB40DB50DB60DFF3EDA
:1001D800031DE6283608CC003508CB003408CA00D1
:1001E8003308C9003F08B300B4013308B400B301B1
:1001F8003308B5003408B600B701B8013508C9049A
:100208003608CA043708CB043808CC044008C904A7
:10021800CE30B300FF30B400FF30B500FF30B60079
:100228000030F9000030F8000030F700C830F60060
:100238004C08F5004B08F4004A08F3004908F2009E
:100248000A128A113D250A128A11720883120313B1
:10025800B7007308B8007408B9007508BA001430FC
:100268000310BA0CB90CB80CB70CFF3E031D3429A7
:100278003708B30738080318380F43294429B40747
:1002880039080318390F49294A29B5073A080318C4
:100298003A0AB6073608A8003508A7003408A600A9
:1002A8003308A50000300A128A11DB220A128A11CB
:1002B800831203132808C8002708C7002608C600A9
:1002C8002508C5003C08B300B401B501B6011030DB
:1002D8000310B30DB40DB50DB60DFF3E031D6C290B
:1002E8003608C4003508C3003408C2003308C1000A
:1002F8003D08B300B4013308B400B3013308B500B6
:100308003408B600B701B8013508C1043608C2047C
:100318003708C3043808C4043E08B3000430031087
:10032800B30CFF3E031D93293308B400B501B60191
:10033800B7013408C1043508C2043608C3043708B5
:10034800C4044408F5004308F4004208F3004108D7
:10035800F2000030F9000030F8000030F700643097
:10036800F6000A128A113D250A128A1172088312B0
:100378000313B3007308B4007408B5007508B60019
:1003880014300310B60CB50CB40CB30CFF3E031DAF
:10039800C5293408CE003308CD00CE1FD429D5296D
:1003A800D729CD01CE014E08803AFF0080307F0268
:1003B800031DE02965304D02031CE329E429EA29DD
:1003C800643083120313CD000030CE008312031370
:1003D8004808F5004708F4004608F3004508F2000D
:1003E8000A128A1197230A128A11730883120313B7
:1003F800A9007208A8000A128A11BE260A128A11D8
:1004080083120313B3003308D1004808F5004708E6
:10041800F4004608F3004508F2000A128A119723EF
:100428000A128A11730883120313A9007208A8001C
:100438000A128A1157260A128A1183120313B3006B
:100448003308D0004808F5004708F4004608F300D0
:100458004508F2000A128A1197230A128A117308B2
:1004680083120313A6007208A5000A128A11052632
:100478000A128A1183120313B3003308CF003030F5
:10048800B3003308D1073030B3003308D007303019
:10049800B3003308CF0701300A128A119F260A12C7
:1004A8008A118312031351080A128A11F7260A12B5
:1004B8008A118312031350080A128A11F7260A12A6
:1004C8008A11831203134F080A128A11F7260A1297
:1004D8008A11831203134E08A9004D08A8000A12B6
:1004E8008A11BE260A128A1183120313B300330835
:1004F800D1004E08A9004D08A8000A128A115726F3
:100508000A128A1183120313B3003308D0004E086D
:10051800A6004D08A5000A128A1105260A128A119A
:1005280083120313B3003308CF003030B30033080D
:10053800D1073030B3003308D0073030B300330868
:10054800CF070F300A128A119F260A128A118312C6
:10055800031351080A128A11F7260A128A11831204
:10056800031350080A128A11F7260A128A118312F5
:1005780003134F080A128A11F7260A128A111A3031
:100588000A128A119F260A128A110B30831203134A
:10059800B5002630B4005D30B300B30BD12AB40BDC
:1005A800D12AB50BD12A4F280A128A110C28831296
:1005B8000313AD002D080319E22AE32AF72AA81F1E
:1005C800E62AE72AF72A2509AF002609B0002709F5
:1005D800B1002809B200AF0A0319B00A0319B10A19
:1005E8000319B20AFF2A2808B2002708B100260812
:1005F800B0002508AF002808270426042504031D99
:10060800062B072B102B0030A8000030A700003065
:10061800A6000030A500962B9630A9002908AE0048
:10062800222B0130A9002908AE0701300310B20CB3
:10063800B10CB00CAF0CFF3E031D1A2BFE30320577
:10064800031D272B282B152B442B0130A900290823
:10065800AE070130AF07003003180130B007003093
:1006680003180130B107003003180130B207013018
:100678000310B20CB10CB00CAF0CFF3E031D3C2BA9
:10068800FF303205031D492B4A2B292B562B0130ED
:10069800AE020130A9000310AF0DB00DB10DB20DBF
:1006A800A90B4F2BB11B592B5A2B602B02302E0252
:1006B80003185F2B602B4B2B2E18632B642B6C2B92
:1006C800FF30AF05FF30B0057F30B105FF30B20510
:1006D8000310AE0C2E08A900AA01AB01AC0118301A
:1006E8000310A90DAA0DAB0DAC0DFF3E031D742B15
:1006F8002908AF042A08B0042B08B1042C08B20456
:100708002D080319882B892B8E2BA81F8C2B8D2B3A
:100718008E2BB2173208A8003108A7003008A600AF
:100728002F08A50008000310740D750D831203131C
:10073800A0002008F7007708031DA32BA42BAD2BDE
:100748000030F5000030F4000030F3000030F20013
:10075800122C7208A0007308A1007408A200750882
:10076800A3001F300310A30CA20CA10CA00CFF3E89
:10077800031DB62B2008A4002408F600F417FF3048
:10078800F205FF30F305FF30F4050030F50596302B
:10079800F702F71FD02BD12BEB2B7708803A973E27
:1007A8000318D72BD82BD92BA42B01300310F50C09
:1007B800F40CF30CF20CFF3E031DDA2B0130A00001
:1007C8002008F707031DE92BEA2BD92B022C203030
:1007D8007702031CF02BF12BFD2BA42B0130A0007A
:1007E8000310F20DF30DF40DF50DA00BF42B0130F1
:1007F800F7027708031D012C022CF22B7608031947
:10080800062C072C122CF209F309F409F509F20A4F
:100818000319F30A0319F40A0319F50A08008312E5
:100828000313A501A11F192C1A2C212CA009A10919
:10083800A00A0319A10AA501A50AA31F242C252C87
:100848002E2CA209A309A20A0319A30A0130F90050
:100858007908A506A601A701200821040319352C4B
:10086800362C6D2CA401A40A442C01300310A00DD1
:10087800A10DFF3E031D3A2C0130F9007908A407A9
:10088800A11F472C482C392C01300310A60DA70DA9
:10089800FF3E031D492C21082302031D552C200867
:1008A8002202031C582C592C602C2008A202210873
:1008B800031CA303A302261401300310A10CA00CEF
:1008C800FF3E031D612C0130A402031D6C2C6D2C0E
:1008D800482C25080319712C722C772CA609A70916
:1008E800A60A0319A70A2708A1002608A0000800DD
:1008F800003083120313A4000030A3000030A200CC
:100908000030A100750874047304720403198D2C57
:100918008E2CDB2CA501A50A9E2C0130A00003100B
:10092800F20DF30DF40DF50DA00B932C0130A00082
:100938002008A507F51FA12CA22C912C0130A0009E
:100948000310A10DA20DA30DA40DA00BA42C7508D6
:100958007902031DB92C74087802031DB92C730899
:100968007702031DB92C72087602031CBC2CBD2C1F
:10097800CC2C7208F6027308031C730FF702740874
:10098800031C740FF8027508031C750FF902211473
:1009980001300310F50CF40CF30CF20CFF3E031DB0
:1009A800CD2C0130A502031DDA2CDB2CA22C240847
:1009B800F5002308F4002208F3002108F2000800DB
:1009C800F801F51FE82CE92CF02CF409F509F40AD4
:1009D8000319F50AF801F80AF31FF32CF42CF92C83
:1009E800F209F309F20A0319F30A720873040319E6
:1009F800FE2CFF2C2E2DF701F70A0D2D01300310C8
:100A0800F20DF30DFF3E031D032D0130F6007608AD
:100A1800F707F31F102D112D022D73087502031D02
:100A2800172D72087402031C1A2D1B2D212D720814
:100A3800F4027308031CF503F50201300310F30CEC
:100A4800F20CFF3E031D222D0130F702031D2D2D50
:100A58002E2D112D78080319322D332D382DF40938
:100A6800F509F40A0319F50A7508F3007408F20089
:100A78000800003083120313A4000030A3000030E4
:100A8800A2000030A100721C4A2D4B2D622D760861
:100A9800A107770803110318013E0319542DA20773
:100AA800780803110318013E03195B2DA307790881
:100AB80003110318013E0319622DA4070130A00099
:100AC8000310F60DF70DF80DF90DA00B642D01308C
:100AD8000310F50CF40CF30CF20CFF3E031D6C2D07
:100AE8007508740473047204031D7B2D7C2D472D37
:100AF8002408F5002308F4002208F3002108F20076
:100B080008008312031387153430F400F130F30022
:100B1800F30B8C2DF40B8C2D912D0A128A111727AB
:100B28000A128A1170300A128A1103270A128A11CE
:100B380070300A128A1103270A128A11E1300A1248
:100B48008A1103270A128A11AC300A128A11032764
:100B58000A128A1108300A128A1103270A128A1106
:100B680000300A128A1103270A128A110A128A11FE
:100B78000E270A128A110430F5008E30F400123064
:100B8800F300F30BC52DF40BC52DF50BC52D000097
:100B9800080028308312031394008316031391016D
:100BA800831203132608AA002708AB002808AC0004
:100BB8002908AD0002300310AA0DAB0DAC0DAD0D28
:100BC800FF3E031DDF2D2D08F5002C08F4002B082F
:100BD800F3002A08F2000030F9007A30F8001230E9
:100BE800F7000030F6000A128A117C240A128A11D2
:100BF8007208FF3E831603139300940187150716A6
:100C08000800831203132608F5002508F400643051
:100C1800F2000030F3000A128A11E4240A128A1141
:100C2800730883120313A8007208A7000A30F200A1
:100C38000030F3002808F5002708F4000A128A118A
:100C4800E4240A128A117208F9007908831203133E
:100C5800A90029080800F3000A128A11EA260A12D4
:100C68008A118316031391150A128A11EA260A12A9
:100C78008A11831203131308F2007208F4000A128F
:100C88008A11EA260A128A117303031D4C2E4D2E6F
:100C9800512E831603139112542E831603139116A3
:100CA8001116740808000A3083120313A0000030DC
:100CB800A1002908F5002808F4006430F20000308B
:100CC800F3000A128A11E4240A128A1173088312A3
:100CD8000313A3007208A2000A128A1113240A122D
:100CE8008A11831203132008AA002A08AB002B08D4
:100CF800080006308A000408840A82070034543445
:100D080065346D34703465347234613474347534D8
:100D1800723461343A34203400340A344834753437
:100D28006D3465346434613464343A3420340034C6
:100D38000A340A340034F400B12E740884000A120C
:100D48008A117D260A128A110A128A11F7260A12B6
:100D58008A110130F3007308F407740884000A123A
:100D68008A117D260A128A11003A031DBC2EBD2E57
:100D7800A12E0800643083120313A0000030A100E4
:100D88002908A3002808A2000A128A1113240A12AB
:100D98008A11831203132008AA002A08AB002B0823
:100DA80008008316031318121815831603178715DE
:100DB800CF308316031399009A01831203139817EF
:100DC80018131816831603139816080083160313AE
:100DD8001419EF2EF02EEA2E11081F39031DF52ED7
:100DE800F62EEA2E0800F20083160313981CFD2E37
:100DF800FE2EF82E72088312031399000800F200E1
:100E08000A128A11EA260A128A1172088312031337
:100E1800930008000A128A11EA260A128A11831618
:100E28000313111508000A128A11EA260A128A11F8
:100E3800831603131114080064008001840A040651
:100E4800031900340406212F71088A00700E8300EC
:080E5800FE0E7E0E09000834B5
:04400E00D420FF3F7C
:00000001FF
