:020000040000FA
:060000000A128A110C280F
:10000800FE00030EF0000A08F1000A128A11352BCF
:100018000A128A110F280A128A113C230A128A111D
:10002800FB0083132030840039300A128A112D23F3
:100038000A128A11FA0183010A128A112429F90085
:10004800790883120313B9003908C80000300A126E
:100058008A11B9220A128A11683083120313BA006E
:10006800E330B900B90B3628BA0B36283B280330E1
:100078000A128A1167220A128A110D308312031399
:10008800BA00FB30B900B90B4728BA0B4728033030
:100098000A128A1167220A128A110D308312031379
:1000A800BA00FB30B900B90B5728BA0B57280330F0
:1000B8000A128A1167220A128A110D308312031359
:1000C800BA00FB30B900B90B6728BA0B67280230B1
:1000D8000A128A1167220A128A110D308312031339
:1000E800BA00FB30B900B90B7728BA0B772828304B
:1000F8000A128A1167220A128A11823083120313A4
:10010800BA00DD30B900B90B8728BA0B87280C3044
:100118000A128A1167220A128A1182308312031383
:10012800BA00DD30B900B90B9728BA0B972801300F
:100138000A128A1167220A128A1182308312031363
:10014800BA00DD30B900B90BA728BA0BA7280630CA
:100158000A128A1167220A128A1182308312031343
:10016800BA00DD30B900B90BB728BA0BB7280800B8
:10017800003083120313BD000030BC000030BB0008
:100188000030BA0075087404730472040319CD288A
:10019800CE281B29BE01BE0ADE280130B900031093
:1001A800F20DF30DF40DF50DB90BD3280130B9009C
:1001B8003908BE07F51FE128E228D1280130B90027
:1001C8000310BA0DBB0DBC0DBD0DB90BE4287508A5
:1001D8007902031DF92874087802031DF9287308A9
:1001E8007702031DF92872087602031CFC28FD28F3
:1001F8000C297208F6027308031C730FF7027408BF
:10020800031C740FF8027508031C750FF9023A14E1
:1002180001300310F50CF40CF30CF20CFF3E031D37
:100228000D290130BE02031D1A291B29E2283D08A9
:10023800F5003C08F4003B08F3003A08F200080017
:100248000A128A11EA220A128A11831603178801F0
:1002580089018316031385010330860080308700E7
:10026800880170308F040F14003083120313C2000A
:100278000130C1008630C000A030BF000A128A11C8
:10028800FE210A128A118312031385018601870150
:1002980088010030C2000130C1008630C000A030A3
:1002A800BF000A128A1136220A128A114E300A1227
:1002B8008A1123200A128A11F901F90A02300A1256
:1002C8008A11C6210A128A1101300A128A118B2159
:1002D8000A128A11023083120313C7004708F90073
:1002E80007300A128A11C6210A128A110F300A121F
:1002F8008A118B210A128A11413083120313C70015
:10030800C70B842987296E290A128A110C28F8003C
:10031800F7017A14B8297708780784000A128A1135
:10032800D4220A128A11F0390A128A1195220A1265
:100338008A117708780784000A128A11D4220A12CF
:100348008A11F60003300310F60DFF3E031DA7299E
:100358000310760DF0390A128A1195220A128A11B1
:100368000130F6007608F7077708780784000A1244
:100378008A11D4220A128A11003A031DC429C529F8
:100388008F29080083120313BB00EA293B08BF3EEC
:100398000A128A1167220A128A11FD293B08933E24
:1003A8000A128A1167220A128A11FD293B08D33ED4
:1003B8000A128A1167220A128A11FD293B087F3E18
:1003C8000A128A1167220A128A11FD297908B900CE
:1003D800BA013A08003A0319F229E2293908023A1F
:1003E8000319CA29013A0319D229073A0319DA2944
:1003F800E22908002830831203139400831603139C
:100408009101831203133F08C3004008C400410848
:10041800C5004208C60002300310C30DC40DC50D47
:10042800C60DFF3E031D102A4608F5004508F400D6
:100438004408F3004308F2000030F9007A30F8006D
:100448001230F7000030F6000A128A11BC200A1296
:100458008A117208FF3E83160313930094018715CF
:100468000716080028308312031394003F08C300BE
:100478004008C4004108C5004208C6000230031005
:10048800C30DC40DC50DC60DFF3E031D432A460806
:10049800F5004508F4004408F3004308F200003072
:1004A800F9007A30F8001230F7000030F6000A122E
:1004B8008A11BC200A128A117208FF3E83160313A0
:1004C800930094010800F8007A107808F0390A12AD
:1004D8008A1195220A128A117808F600033003104F
:1004E800F60DFF3E031D732A0310760DF0390A122C
:1004F8008A1195220A128A1178030319842A852AF7
:100508008B2A02307806031D8A2A8B2A942A063001
:10051800F7003030F600F60B8F2AF70B8F2A000011
:100528000800F50000307A180130F4007408F5046A
:100538007508FB390A128A11B9220A128A11A42AEB
:10054800750804380A128A11B9220A128A11AC2ACB
:100558007508FB390A128A11B9220A128A11423027
:10056800F400F40BB52A00000800F3000A128A11FF
:100578001F230A128A118312031348080A128A11C8
:10058800FF220A128A1173087B040A128A11FF22B9
:100598000A128A110A128A1111230A128A110800F2
:1005A80002308A000408840A82070034483465341B
:1005B8006C346C346F342C34203477346F347234A8
:1005C8006C3464342134003431340034831603131A
:1005D80018121815831603178715CF3083160313BF
:1005E80099009A0183120313981718131816831683
:1005F800031398160800F200831603131419052B29
:10060800062B002B11081F39031D0B2B0C2B002B5D
:100618007208831203139300080083160313141936
:10062800162B172B112B11081F39031D1C2B1D2BE3
:10063800112B11150800831603131419242B252BCD
:100648001F2B11081F39031D2A2B2B2B1F2B1114AD
:10065800080064008001840A0406031900340406B3
:100668002E2B71088A00700E8300FE0E7E0E090084
:02067800083444
:04400E00D420FF3F7C
:00000001FF
