:020000040000FA
:060000000A128A110C280F
:10000800FE00030EF0000A08F1000A128A11192EE8
:100018000A128A110F280A128A1124260A128A1132
:10002800CE008313203084003A300A128A11112638
:100038000A128A11FB01FA0183010A128A11242883
:100048000A128A11C6250A128A116030831603170C
:1000580088008901803083160313870007308900E0
:1000680070308F040F149F131F129F1283120313F3
:100078001F139F171F08C33914389F00413083127C
:100088000313C800C80B46284928831203131F14FA
:100098009F140030C3000130C2008630C100A03078
:1000A800C0000A128A11BC240A128A110A128A1183
:1000B8003C240A128A1183120313850187018801DF
:1000C80040300A128A11A9220A128A11F901F90A82
:1000D80001300A128A1184240A128A110130F600AA
:1000E8008030F7000A128A11AA230A128A110A120A
:1000F8008A1108260A128A1170300A128A11F42508
:100108000A128A11AC300A128A11F4250A128A11CD
:1001180033300A128A11F4250A128A1100300A12A1
:100128008A11F4250A128A110A128A11FF250A1265
:100138008A11C33083120313C900CC30C800C80B1E
:10014800A328C90BA32800000A128A1108260A123C
:100158008A1171300A128A11F4250A128A110030A4
:100168000A128A1122250A128A1183120313C8005F
:100178004808A00000300A128A1122250A128A11A2
:1001880083120313C8004808A10000300A128A111C
:1001980022250A128A1183120313C8004808A200F4
:1001A80000300A128A1122250A128A1183120313B7
:1001B800C8004808A30000300A128A1122250A1232
:1001C8008A1183120313C8004808A40000300A12D9
:1001D8008A1122250A128A1183120313C8004808BB
:1001E800A5000A128A11FF250A128A110330831208
:1001F8000313CA000830C9007630C800C80B0229AA
:10020800C90B0229CA0B0229000083120313230811
:100218000F39C800C901CA01CB0110300310C80D3D
:10022800C90DCA0DCB0DFF3E031D12294B08AD00A9
:100238004A08AC004908AB004808AA002408C800CE
:10024800C9014808C900C8014808CA004908CB00C4
:10025800CC01CD014A08AA044B08AB044C08AC04F5
:100268004D08AD042508AA042D08F5002C08F40053
:100278002B08F3002A08F2000030F9000030F800DB
:100288000030F700C830F6000A128A11F4230A1267
:100298008A11720883120313C8007308C90074080E
:1002A800CA007508CB0014300310CB0CCA0CC90C5B
:1002B800C80CFF3E031D58294808CE3EB80049081F
:1002C8000318013EFF3EB9000A128A1108260A12D5
:1002D8008A1180300A128A11F4250A128A11F33021
:1002E8000A128A11F4250A128A110A128A11FF25A4
:1002F8000A128A11033083120313CA000830C90096
:100308007630C800C80B8629C90B8629CA0B8629EE
:1003180000000A128A1108260A128A1181300A126C
:100328008A11F4250A128A1100300A128A1122252C
:100338000A128A1183120313C800C9014808C900A8
:10034800C8014808AE004908AF0000300A128A11F7
:1003580022250A128A1183120313C800C90148080A
:10036800AE070318AF0A4908AF070A128A11FF251A
:100378000A128A11033083120313CA000830C90015
:100388007630C800C80BC629C90BC629CA0BC629AE
:100398000000831203132E08AF3CC8004808FB0076
:1003A80065307B02031CD929DA29DE296430C800AC
:1003B8004808FB000230C8004808F90001300A125A
:1003C8008A1184240A128A117B30F6000030F70063
:1003D8000A128A11AA230A128A111330F6008030F1
:1003E800F7000A128A11AA230A128A11023083120C
:1003F8000313C8004808F90007300A128A11842438
:100408000A128A113830F6000030F7000A128A11F1
:10041800AA230A128A11023083120313C80048085B
:10042800F9000B300A128A1184240A128A110F303B
:10043800F6008030F7000A128A11AA230A128A11DC
:10044800831203138C1E292A2A2A342A0A128A1193
:1004580020260A128A1183120313C8004808B20022
:1004680068303206031D392A3A2A402A7B300A129C
:100478008A11AF250A128A117430831203133206C7
:10048800031D472A482A4E2A38300A128A11AF25F6
:100498000A128A1183120313B201612A0330C800B9
:1004A8004808B100742A0230C8004808B100742A0C
:1004B800B101B10A742AB101742A3908003A031942
:1004C800662A742A3808163A03195F2A0E3A03195D
:1004D8005C2A023A0319572A063A0319522A742A3F
:1004E80016307B020318792A7A2A7F2A31080438C1
:1004F800C8004808B1000A128A1108260A128A118F
:1005080050300A128A11F4250A128A118312031331
:1005180031080A128A11F4250A128A110A128A115C
:10052800FF250A128A11063083120313CA001330FA
:10053800C900AD30C800C80B9F2AC90B9F2ACA0B37
:100548009F2A7B280A128A110C28F900790883123D
:100558000313BA003A08B00000300A128A11922533
:100568000A128A11683083120313BB00E330BA0001
:10057800BA0BBC2ABB0BBC2AC12A03300A128A1147
:10058800F4240A128A110D3083120313BB00FB30C6
:10059800BA00BA0BCD2ABB0BCD2A03300A128A1136
:1005A800F4240A128A110D3083120313BB00FB30A6
:1005B800BA00BA0BDD2ABB0BDD2A03300A128A11F6
:1005C800F4240A128A110D3083120313BB00FB3086
:1005D800BA00BA0BED2ABB0BED2A02300A128A11B7
:1005E800F4240A128A110D3083120313BB00FB3066
:1005F800BA00BA0BFD2ABB0BFD2A28300A128A1151
:10060800F4240A128A11823083120313BB00DD30EE
:10061800BA00BA0B0D2BBB0B0D2B0C300A128A112A
:10062800F4240A128A11823083120313BB00DD30CE
:10063800BA00BA0B1D2BBB0B1D2B01300A128A11F5
:10064800F4240A128A11823083120313BB00DD30AE
:10065800BA00BA0B2D2BBB0B2D2B06300A128A11B0
:10066800F4240A128A11823083120313BB00DD308E
:10067800BA00BA0B3D2BBB0B3D2B08000030831290
:100688000313BE000030BD000030BC000030BB00CA
:1006980075087404730472040319532B542BA12B8B
:1006A800BF01BF0A642B0130BA000310F20DF30D2D
:1006B800F40DF50DBA0B592B0130BA003A08BF07F3
:1006C800F51F672B682B572B0130BA000310BB0DA1
:1006D800BC0DBD0DBE0DBA0B6A2B75087902031D42
:1006E8007F2B74087802031D7F2B73087702031D84
:1006F8007F2B72087602031C822B832B922B7208A5
:10070800F6027308031C730FF7027408031C740FB6
:10071800F8027508031C750FF9023B140130031029
:10072800F50CF40CF30CF20CFF3E031D932B013077
:10073800BF02031DA02BA12B682B3E08F5003D0826
:10074800F4003C08F3003B08F2000800F9017A14B1
:10075800E02B79087607840077080318770AFF00EA
:100768000A128A114A250A128A11F0390A128A11C4
:100778006E250A128A11790876078400770803180B
:10078800770A83120313FF000A128A114A250A12F4
:100798008A11F80003300310F80DFF3E031DCF2B1C
:1007A8000310780DF0390A128A116E250A128A117F
:1007B8000130F8007808F907790876078400770887
:1007C8000318770A83120313FF000A128A114A25B5
:1007D8000A128A11003A031DF22BF32BAD2B0800E5
:1007E800003083120313BE000030BD000030BC008F
:1007F8000030BB00721C012C022C192C7608BB0798
:10080800770803110318013E03190B2CBC0778085D
:1008180003110318013E0319122CBD0779080311AF
:100828000318013E0319192CBE070130BA00031042
:10083800F60DF70DF80DF90DBA0B1B2C013003104E
:10084800F50CF40CF30CF20CFF3E031D232C750879
:10085800740473047204031D322C332CFE2B3E08DF
:10086800F5003D08F4003C08F3003B08F2000800DE
:100878008312031387153430F400F130F300F30BBF
:10088800432CF40B432C482C0A128A1108260A120E
:100898008A1170300A128A11F4250A128A117030EE
:1008A8000A128A11F4250A128A11E1300A128A11F1
:1008B800F4250A128A11AC300A128A11F4250A1298
:1008C8008A1108300A128A11F4250A128A11003096
:1008D8000A128A11F4250A128A110A128A11FF25AE
:1008E8000A128A110430F5008E30F4001230F30039
:1008F800F30B7C2CF40B7C2CF50B7C2C00000800F3
:1009080083120313BC00A82C3C08BF3E0A128A11AC
:10091800F4240A128A11BB2C3C08933E0A128A114D
:10092800F4240A128A11BB2C3C08D33E0A128A11FD
:10093800F4240A128A11BB2C3C087F3E0A128A1141
:10094800F4240A128A11BB2C7908BA00BB013B08AF
:10095800003A0319B02CA02C3A08023A0319882C43
:10096800013A0319902C073A0319982CA02C080077
:100978002830831203139400831603139101831202
:1009880003134008C4004108C5004208C6004308D4
:10099800C70002300310C40DC50DC60DC70DFF3EBC
:1009A800031DCE2C4708F5004608F4004508F3005F
:1009B8004408F2000030F9007A30F8001230F700ED
:1009C8000030F6000A128A1142230A128A117208AC
:1009D800FF3E83160313930094018715071608003A
:1009E800F8007A107808F0390A128A116E250A126E
:1009F8008A117808F60003300310F60DFF3E031D38
:100A0800002D0310760DF0390A128A116E250A128C
:100A18008A1178030319112D122D182D023078062A
:100A2800031D172D182D212D0630F7003030F60044
:100A3800F60B1C2DF70B1C2D00000800F3000A1202
:100A48008A11DB250A128A118316031391150A12DB
:100A58008A11DB250A128A11831203131308F20084
:100A68007208F4000A128A11DB250A128A1173032C
:100A7800031D3F2D402D442D831603139112472D3E
:100A8800831603139116111674080800FF1B542DC2
:100A980083137F1883170008840A0319FF0A0800C4
:100AA80005308A000408840A820700344834653413
:100AB8006C346C346F342C34203477346F347234A3
:100AC8006C34643421340034C234B03443340034D8
:100AD80025340034F50000307A180130F400740829
:100AE800F5047508FB390A128A1192250A128A112F
:100AF8007D2D750804380A128A1192250A128A1166
:100B0800852D7508FB390A128A1192250A128A1155
:100B18004230F400F40B8E2D00000800F3000A1296
:100B28008A1108260A128A118312031330080A123E
:100B38008A11F4250A128A117308831203134E04CA
:100B48000A128A11F4250A128A110A128A11FF253B
:100B58000A128A110800F400BD2D740884000008E8
:100B68000A128A11E8250A128A110130F300730863
:100B7800F4077408840083130008031DC42DC52DD1
:100B8800B12D0800831603131812181583160317BE
:100B98008715CF308316031399009A018312031324
:100BA8009817181318168316031398160800831637
:100BB80003131419E02DE12DDB2D11081F39031D36
:100BC800E62DE72DDB2D0800F20083160313981C91
:100BD800EE2DEF2DE92D72088312031399000800FA
:100BE800F2000A128A11DB250A128A11720883128E
:100BF8000313930008000A128A11DB250A128A11CE
:100C080083160313111508000A128A11DB250A122C
:100C18008A11831603131114080064008001840AE2
:100C28000406031900340406122E71088A00700E97
:100C38008300FE0E7E0E0900831203131A080800B3
:020C480008346E
:04400E00D420FF3F7C
:00000001FF
