:020000040000FA
:060000000A128A110C280F
:10000800FE00030EF0000A08F1000A128A11F82A0D
:100018000A128A110F280A128A11FF220A128A115B
:10002800FB0083132030840039300A128A11F02231
:100038000A128A11FA0183010A128A112429F90085
:10004800790883120313B9003908CA0000300A126C
:100058008A1180220A128A11683083120313BA00A7
:10006800E330B900B90B3628BA0B36283B280330E1
:100078000A128A112E220A128A110D3083120313D2
:10008800BA00FB30B900B90B4728BA0B4728033030
:100098000A128A112E220A128A110D3083120313B2
:1000A800BA00FB30B900B90B5728BA0B57280330F0
:1000B8000A128A112E220A128A110D308312031392
:1000C800BA00FB30B900B90B6728BA0B67280230B1
:1000D8000A128A112E220A128A110D308312031372
:1000E800BA00FB30B900B90B7728BA0B772828304B
:1000F8000A128A112E220A128A11823083120313DD
:10010800BA00DD30B900B90B8728BA0B87280C3044
:100118000A128A112E220A128A11823083120313BC
:10012800BA00DD30B900B90B9728BA0B972801300F
:100138000A128A112E220A128A118230831203139C
:10014800BA00DD30B900B90BA728BA0BA7280630CA
:100158000A128A112E220A128A118230831203137C
:10016800BA00DD30B900B90BB728BA0BB7280800B8
:10017800003083120313BD000030BC000030BB0008
:100188000030BA0075087404730472040319CD288A
:10019800CE281B29BE01BE0ADE280130B900031093
:1001A800F20DF30DF40DF50DB90BD3280130B9009C
:1001B8003908BE07F51FE128E228D1280130B90027
:1001C8000310BA0DBB0DBC0DBD0DB90BE4287508A5
:1001D8007902031DF92874087802031DF9287308A9
:1001E8007702031DF92872087602031CFC28FD28F3
:1001F8000C297208F6027308031C730FF7027408BF
:10020800031C740FF8027508031C750FF9023A14E1
:1002180001300310F50CF40CF30CF20CFF3E031D37
:100228000D290130BE02031D1A291B29E2283D08A9
:10023800F5003C08F4003B08F3003A08F200080017
:100248000A128A11B1220A128A1183160317880129
:100258008901831603138501803087008801703077
:100268008F040F14003083120313C2000130C10041
:100278008630C000A030BF000A128A11F6210A1287
:100288008A118312031385018701880140300A12FD
:100298008A1123200A128A11F901F90A01300A1277
:1002A8008A11BE210A128A1101300A128A11832189
:1002B8000A128A11023083120313C7004708F90093
:1002C80007300A128A11BE210A128A110F300A1247
:1002D8008A1183210A128A11033083120313C90079
:1002E8000830C8007630C700C70B7829C80B7829B2
:1002F800C90B782900005E290A128A110C28F80017
:10030800F7017A14B0297708780784000A128A114D
:100318009B220A128A11F0390A128A115C220A12E7
:100328008A117708780784000A128A119B220A1218
:100338008A11F60003300310F60DFF3E031D9F29B6
:100348000310760DF0390A128A115C220A128A11FA
:100358000130F6007608F7077708780784000A1254
:100368008A119B220A128A11003A031DBC29BD2951
:100378008729080083120313BB00E2293B08BF3E0C
:100388000A128A112E220A128A11F5293B08933E75
:100398000A128A112E220A128A11F5293B08D33E25
:1003A8000A128A112E220A128A11F5293B087F3E69
:1003B8000A128A112E220A128A11F5297908B9001F
:1003C800BA013A08003A0319EA29DA293908023A3F
:1003D8000319C229013A0319CA29073A0319D2296C
:1003E800DA290800283083120313940083160313B4
:1003F8009101831203133F08C3004008C400410859
:10040800C5004208C60002300310C30DC40DC50D57
:10041800C60DFF3E031D082A4608F5004508F400EE
:100428004408F3004308F2000030F9007A30F8007D
:100438001230F7000030F6000A128A11BC200A12A6
:100448008A117208FF3E83160313930094018715DF
:1004580007160800F8007A107808F0390A128A118D
:100468005C220A128A117808F60003300310F60D90
:10047800FF3E031D3A2A0310760DF0390A128A113D
:100488005C220A128A11780303194B2A4C2A522A31
:1004980002307806031D512A522A5B2A0630F700DB
:1004A8003030F600F60B562AF70B562A00000800E3
:1004B800F50000307A180130F4007408F504750866
:1004C800FB390A128A1180220A128A116B2A7508CE
:1004D80004380A128A1180220A128A11732A7508AE
:1004E800FB390A128A1180220A128A114230F4005A
:1004F800F40B7C2A00000800F3000A128A11E72294
:100508000A128A11831203134A080A128A11D32283
:100518000A128A1173087B040A128A11D3220A125A
:100528008A110A128A11DE220A128A110800023080
:100538008A000408840A82070034483465346C341D
:100548006C346F342C34203477346F3472346C3418
:100558006434213400343134003483160313181200
:100568001815831603178715CF30831603139900C0
:100578009A01831203139817181318168316031376
:1005880098160800831603131419CB2ACC2AC62AF6
:1005980011081F39031DD12AD22AC62A0800F200E1
:1005A8000A128A11C6220A128A11720883120313C8
:1005B800930008000A128A11C6220A128A118316A9
:1005C8000313111508000A128A11C6220A128A1189
:1005D800831603131114080064008001840A0406BA
:1005E800031900340406F12A71088A00700E83008A
:0805F800FE0E7E0E090008341E
:04400E00D420FF3F7C
:00000001FF
