:020000040000FA
:060000000A128A110C280F
:10000800FE00030EF0000A08F1000A128A118D2F73
:100018000A128A110F280A128A1194270A128A11C1
:10002800FA00DB01DC01DD01DE01DF01E001E101B5
:10003800E201E301E401E501E601E701F901F80164
:1000480083010A128A11892B831203132D08803920
:10005800B2003208B7002D08B2003207B3003308E7
:10006800BD00AC1F382839283A283D143D0803192B
:100078003E283F284E283D0A031D432844284C2883
:100088000030AD000030AC000030AB000030AA00FA
:10009800AC1756280030AD000030AC000030AB0083
:1000A8000030AA0031088039B2003208B70631089A
:1000B800B2003207B3003308B800B01F64286528BF
:1000C80066283814380803196A286B287A28380AE9
:1000D800031D6F28702878280030B1000030B00068
:1000E8000030AF000030AE00B01782280030B100F9
:1000F8000030B0000030AF000030AE0038080319FF
:10010800862887288C283D08031D8B288C2895284D
:100118000030AD000030AC000030AB000030AA0069
:10012800882B2A08B2003208F20030080A128A1115
:1001380012270A128A11730883120313C300720864
:10014800C2004208B200B301B401B5013508BC00D1
:100158003408BB003308BA003208B9004308B200BB
:10016800B301B401B5013508C1003408C000330833
:10017800BF003208BE002B08B2003208F2002F0878
:100188000A128A1112270A128A117308831203139A
:10019800C3007208C2004208B200B301B401B5013D
:1001A8003208B907330803110318013E0319DD2883
:1001B800BA07340803110318013E0319E428BB07E2
:1001C800350803110318013E0319EB28BC0743083F
:1001D800B200B301B401B5013208BE0733080311F8
:1001E8000318013E0319F928BF073408031103183F
:1001F800013E03190029C007350803110318013E01
:1002080003190729C1072C08B2003208F2002E088A
:100218000A128A1112270A128A1173088312031309
:10022800C3007208C2004208B200B301B401B501AC
:100238003208B907330803110318013E03192529A9
:10024800BA07340803110318013E03192C29BB0708
:10025800350803110318013E03193329BC07430865
:10026800B200B301B401B5013208BE073308031167
:100278000318013E03194129BF0734080311031865
:10028800013E03194829C007350803110318013E28
:1002980003194F29C1070830B2000310B90DBA0D70
:1002A800BB0DBC0DB20B51292B08B2003208F2006D
:1002B8002E080A128A1112270A128A117308831249
:1002C8000313C3007208C2004208B2004308B30017
:1002D800B401B5013208B907330803110318013E08
:1002E80003197729BA07340803110318013E0319C3
:1002F8007E29BB07350803110318013E0319852918
:10030800BC072A08B2003208F2002F080A128A1124
:1003180012270A128A11730883120313C300720882
:10032800C2004208B2004308B300B401B501320864
:10033800B907330803110318013E0319A429BA07A2
:10034800340803110318013E0319AB29BB0735080C
:1003580003110318013E0319B229BC070830B20083
:100368000310B90DBA0DBB0DBC0DB20BB4292A0888
:10037800B2003208F2002E080A128A1112270A1255
:100388008A11730883120313C3007208C20042085B
:10039800B2004308B300B401B5013208B907330805
:1003A80003110318013E0319DA29BA0734080311A7
:1003B8000318013E0319E129BB0735080311031887
:1003C800013E0319E829BC072B08B2003208F200E5
:1003D80030080A128A1112270A128A117308831226
:1003E8000313C3007208C2004208B2004308B300F6
:1003F800B401B5013208BE07330803110318013EE2
:100408000319072ABF07340803110318013E03190B
:100418000E2AC007350803110318013E0319152ACF
:10042800C1072C08B2003208F2002F080A128A11FC
:1004380012270A128A11730883120313C300720861
:10044800C2004208B2004308B300B401B501320843
:10045800BE07330803110318013E0319342ABF07E6
:10046800340803110318013E03193B2AC007350855
:1004780003110318013E0319422AC1072C08B200D0
:100488003208F20030080A128A1112270A128A1159
:10049800730883120313C3007208C2004208B20033
:1004A8004308B300B401B50108300310B20DB30D11
:1004B800B40DB50DFF3E031D592A3208BE07330897
:1004C80003110318013E03196A2ABF0734080311F0
:1004D8000318013E0319712AC007350803110318D0
:1004E800013E0319782AC1073908B2003A08B30057
:1004F8003B08B4003C08B50018300310B50CB40C28
:10050800B30CB20CFF3E031D812A3208BE07330824
:1005180003110318013E0319922ABF073408031177
:100528000318013E0319992AC00735080311031857
:10053800013E0319A02AC1070830B2000310B90D03
:10054800BA0DBB0DBC0DB20BA22A3D083807B2008C
:10055800B301B30D3208823EC20033080318013ECE
:10056800FF3EC300D42A0130B2000310BE0DBF0DF8
:10057800C00DC10DB20BB92ABC1FC32AC42AC52A93
:100588003E140130B2000310B90DBA0DBB0DBC0DFD
:10059800B20BC72AFF30C2070318C30AFF30C307CC
:1005A800C01FD72AD82AB72AB801BC1FDC2ADD2ADF
:1005B800F92AFF303905B200FF303A05B300FF30A1
:1005C8003B05B4007F303C05B500350834043304DE
:1005D80032040319F02AF12AF42AB801B80AF92AD0
:1005E8003E1CF72AF82AF92AF12A38080319FD2AA5
:1005F800FE2A2F2B0130BE07003003180130BF0739
:10060800003003180130C007003003180130C1075B
:10061800411C0F2B102B2F2B3E08B2003F08B300B4
:100628004008B4004108B5000130B600350DB50CDE
:10063800B40CB30CB20CB60B1A2B3508C100340835
:10064800C0003308BF003208BE000130C2070318DB
:10065800C30A0030C3074308803AFF0080307F0296
:10066800031D382BFF304202031C3B2B3C2B472B2E
:100678007F3083120313C1008030C0000030BF00F8
:100688000030BE007C2B831203134308803AFF001E
:1006980080307F02031D522B013042020318552B74
:1006A800562B622B003083120313C1000030C000A8
:1006B8000030BF000030BE00B7017C2B831203134B
:1006C8004208B2003208BD00FF30BE05FF30BF054A
:1006D8007F30C0050030C1053D1C732B742B752B72
:1006E800C0173D08B2000310320CB3003308C10034
:1006F8003708B2003208C1044108AD004008AC0018
:100708003F08AB003E08AA000800831603178801BB
:10071800890183160313850170308F040F1400308C
:1007280083120313AB000130AA008630A900A03061
:10073800A8000A128A11D8260A128A110A128A11E6
:1007480086260A128A118312031385010A128A1156
:1007580084270A128A1138300A128A1170270A125D
:100768008A11AC300A128A1170270A128A113330A2
:100778000A128A1170270A128A1100300A128A1185
:1007880070270A128A110A128A117B270A128A1103
:10079800D03083120313CE00C930CD00CD0BD22B3D
:1007A800CE0BD22B0A128A1184270A128A113930E9
:1007B8000A128A1170270A128A1100300A128A1145
:1007C8003B270A128A1183120313CD004D08DB0060
:1007D80000300A128A113B270A128A118312031366
:1007E800CD004D08DC0000300A128A113B270A129E
:1007F8008A1183120313CD004D08DD0000300A1260
:100808008A113B270A128A1183120313CD004D085F
:10081800DE0000300A128A113B270A128A1183125D
:100828000313CD004D08DF0000300A128A113B2760
:100838000A128A1183120313CD004D08E0000A1230
:100848008A117B270A128A11033083120313CF00FF
:100858000830CE007630CD00CD0B302CCE0B302CAE
:10086800CF0B302C0000831203135E08CD00CE019D
:10087800CF01D0015D08D100D2015108D200D101C9
:100888005108D3005208D400D501D6015C08D7001E
:10089800D801D901DA0110300310D70DD80DD90DC0
:1008A800DA0DFF3E031D502C5708D3045808D40412
:1008B8005908D5045A08D6045308CD045408CE0460
:1008C8005508CF045608D00404300310D00CCF0CC0
:1008D800CE0CCD0CFF3E031D692C5008E4004F08D8
:1008E800E3004E08E2004D08E1006408F5006308E3
:1008F800F4006208F3006108F20000300A128A115D
:10090800E6240A128A11750883120313B1007408C9
:10091800B0007308AF007208AE003830AD00C730C1
:10092800AC003A30AB00BD30AA000A128A11282068
:100938000A128A11831203132D08C7002C08C60057
:100948002B08C5002A08C4000A128A11A2250A1217
:100958008A11831203134408CD00CE014D08E50027
:100968004E08E600E61FB92CBA2CBC2CE501E601BE
:100978006608803AFF0080307F02031DC52C653071
:100988006502031CC82CC92CCF2C643083120313B6
:10099800E5000030E6008312031365088500033084
:1009A80083120313CF000830CE007630CD00CD0B74
:1009B800DB2CCE0BDB2CCF0BDB2C0000AA2B0A1276
:1009C8008A110C2883120313A40024080319ED2CA0
:1009D800EE2C022DF51FF12CF22C022D7209A60027
:1009E8007309A7007409A8007509A900A60A0319C4
:1009F800A70A0319A80A0319A90A0A2D7508A90044
:100A08007408A8007308A7007208A6007508740483
:100A180073047204031D112D122D1B2D0030F500D7
:100A28000030F4000030F3000030F200A12D9630C1
:100A3800A0002008A5002D2D0130A0002008A50742
:100A480001300310A90CA80CA70CA60CFF3E031D2F
:100A5800252DFE302905031D322D332D202D4F2D38
:100A68000130A0002008A5070130A60700300318B0
:100A78000130A707003003180130A8070030031819
:100A88000130A90701300310A90CA80CA70CA60C6B
:100A9800FF3E031D472DFF302905031D542D552DFD
:100AA800342D612D0130A5020130A0000310A60DE0
:100AB800A70DA80DA90DA00B5A2DA81B642D652DF7
:100AC8006B2D0230250203186A2D6B2D562D251823
:100AD8006E2D6F2D772DFF30A605FF30A7057F30CF
:100AE800A805FF30A9050310A50C2508A000A10141
:100AF800A201A30118300310A00DA10DA20DA30D92
:100B0800FF3E031D7F2D2008A6042108A704220804
:100B1800A8042308A90424080319932D942D992DBA
:100B2800F51F972D982D992DA9172908F500280844
:100B3800F4002708F3002608F200080003108312C7
:100B48000313460D470DC8004808F7007708031D32
:100B5800AE2DAF2DB82D0030C7000030C6000030D4
:100B6800C5000030C4001D2E4408C8004508C9004F
:100B78004608CA004708CB001F300310CB0CCA0C2C
:100B8800C90CC80CFF3E031DC12D4808CC004C08F9
:100B9800F600C617FF30C405FF30C505FF30C6058F
:100BA8000030C7059630F702F71FDB2DDC2DF62D38
:100BB8007708803A973E0318E22DE32DE42DAF2DF8
:100BC80001300310C70CC60CC50CC40CFF3E031D36
:100BD800E52D0130C8004808F707031DF42DF52D51
:100BE800E42D0D2E20307702031CFB2DFC2D082E42
:100BF800AF2D0130C8000310C40DC50DC60DC70DBB
:100C0800C80BFF2D0130F7027708031D0C2E0D2E9F
:100C1800FD2D76080319112E122E1D2EC409C509A3
:100C2800C609C709C40A0319C50A0319C60A03195C
:100C3800C70A08000030F6000030F5000030F40064
:100C48000030F30083120313230822042104200434
:100C580003192F2E302E7D2EF701F70A402E013072
:100C6800F2000310A00DA10DA20DA30DF20B352E5D
:100C78000130F2007208F707A31F432E442E332ECB
:100C88000130F2000310F30DF40DF50DF60DF20B23
:100C9800462E23082702031D5B2E22082602031D69
:100CA8005B2E21082502031D5B2E20082402031C4D
:100CB8005E2E5F2E6E2E2008A4022108031C210F31
:100CC800A5022208031C220FA6022308031C230FD7
:100CD800A702731401300310A30CA20CA10CA00CE2
:100CE800FF3E031D6F2E0130F702031D7C2E7D2E63
:100CF800442E7608A3007508A2007408A1007308A2
:100D0800A00008006830F400E430F300F30B8A2EEA
:100D1800F40B8A2E00000A128A1184270A128A11FB
:100D280038300A128A1170270A128A11BA300A1248
:100D38008A1170270A128A110A128A117B270A124D
:100D48008A113430F400F130F300F30BA92EF40BC0
:100D5800A92EAE2E0A128A1184270A128A11383057
:100D68000A128A1170270A128A11E1300A128A11AE
:100D780070270A128A11AC300A128A1170270A12D7
:100D88008A110A128A117B270A128A110430F50087
:100D98008E30F4001230F300F30BD02EF40BD02E6B
:100DA800F50BD02E0000080028308312031394009E
:100DB800831603139101831203132808AC00290832
:100DC800AD002A08AE002B08AF0002300310AC0DAE
:100DD800AD0DAE0DAF0DFF3E031DEA2E2F08A3008B
:100DE8002E08A2002D08A1002C08A0000030A700A2
:100DF8007A30A6001230A5000030A4000A128A1129
:100E08001E260A128A11831203132008FF3E831636
:100E18000313930094018715071608008312031320
:100E2800A400A001A1017208F400F5017408A20051
:100E38007508A300241C212F222F282F2208A00781
:100E48000318A10A2308A10701300310A20DA30D5E
:100E5800FF3E031D292F0310A40C2408031D352F62
:100E6800362F1E2F2108F3002008F2000800F30097
:100E78000A128A1163270A128A118316031391151D
:100E88000A128A1163270A128A118312031313089C
:100E9800F2007208F4000A128A1163270A128A11F2
:100EA8007303031D582F592F5D2F831603139112B7
:100EB800602F831603139116111674080800831601
:100EC80003131419682F692F632F11081F39031D85
:100ED8006E2F6F2F632F0800F2000A128A11632702
:100EE8000A128A11720883120313930008000A1267
:100EF8008A1163270A128A11831603131115080031
:100F08000A128A1163270A128A118316031311140D
:100F1800080071088A00700E8300FE0E7E0E09001C
:020F280008348B
:04400E00D420FF3F7C
:00000001FF
