:020000040000FA
:060000000A128A110C280F
:10000800FE00030EF1000A08F2000A128A114B2AB8
:100018000A128A110F2883120313B101B201B30126
:10002800B401B50183010A128A111A280A128A1129
:1000380038230A128A118316031788018901831647
:1000480003138501033086008030870088017030F3
:100058008F040F14811315149514161496140B108D
:100068008B178B150B1083120313B601B60A850183
:100078008601870188010808AE00AF012E08AA0092
:100088002F08AB000A128A110C230A128A11831254
:100098000313B0003008B9000808AE00AF012E08FD
:1000A800AA002F08AB000A128A11C7220A128A1165
:1000B80083120313B0003008B8000808AE00AF017F
:1000C8002E08A2002F08A3000A128A1177220A120A
:1000D8008A1183120313B0003008B7003030AE0025
:1000E8002E08B9073030AE002E08B8073030AE0001
:1000F8002E08B7073608031D822883288928310867
:1001080005060319882889281B291C300A128A1118
:10011800ED220A128A1101300A128A11ED220A12FE
:100128008A118312031339080A128A114D230A12FD
:100138008A118312031338080A128A114D230A12EE
:100148008A118312031337080A128A114D230A12DF
:100158008A111E300A128A11ED220A128A1183129C
:1001680003130508AE00AF012E08AA002F08AB0044
:100178000A128A110C230A128A1183120313B0007F
:100188003008B9000508AE00AF012E08AA002F08F4
:10019800AB000A128A11C7220A128A1183120313AA
:1001A800B0003008B8000508AE00AF012E08A20064
:1001B8002F08A3000A128A1177220A128A118312C1
:1001C8000313B0003008B7003030AE002E08B9076E
:1001D8003030AE002E08B8073030AE002E08B70712
:1001E80001300A128A11ED220A128A1183120313AE
:1001F80039080A128A114D230A128A11831203132D
:1002080038080A128A114D230A128A11831203131D
:1002180037080A128A114D230A128A111C300A1251
:100228008A11ED220A128A1183120313B6018C1E59
:100238001E291F296F290A128A1159230A128A11A5
:1002480083120313AE002E08B30030303302031CB0
:100258002E292F296F293A303302031834293529DA
:100268006F293308AE003208343E84002E08831309
:1002780080000130AE002E08B20703303202031CA2
:10028800462947296F29B2016430AE002E08F400D0
:100298003408D03E0A128A1123230A128A118312C3
:1002A8000313AF002F08B1000A30AE002E08F40087
:1002B8003508D03E0A128A1123230A128A118312A2
:1002C8000313AF002F08B1073608D03EAE002E0842
:1002D800B107310885002B303306031D74297529B1
:1002E8007A290130AE002E08880782292D3033067E
:1002F800031D7F298029822901308802B3013F2804
:100308000A128A110C2883120313A701A31F8D292F
:100318008E299529A209A309A20A0319A30AA701EC
:10032800A70AA51F98299929A229A409A509A40AF9
:100338000319A50A0130F9007908A706A801A9013F
:10034800220823040319A929AA29E129A601A60A32
:10035800B82901300310A20DA30DFF3E031DAE29DD
:100368000130F9007908A607A31FBB29BC29AD29CC
:1003780001300310A80DA90DFF3E031DBD29230858
:100388002502031DC92922082402031CCC29CD29D2
:10039800D4292208A4022308031CA503A5022814B3
:1003A80001300310A30CA20CFF3E031DD529013018
:1003B800A602031DE029E129BC2927080319E5291C
:1003C800E629EB29A809A909A80A0319A90A2908ED
:1003D800A3002808A200080083120313A101F71F35
:1003E800F629F729FE29F609F709F60A0319F70A83
:1003F800A101A10AF51F012A022A072AF409F50911
:10040800F40A0319F50A7408750403190C2A0D2A4D
:100418003C2AA001A00A1B2A01300310F40DF50D97
:10042800FF3E031D112A0130F8007808A007F51FC8
:100438001E2A1F2A102A75087702031D252A740808
:100448007602031C282A292A2F2A7408F60275081E
:10045800031CF703F70201300310F50CF40CFF3E00
:10046800031D302A0130A002031D3B2A3C2A1F2A03
:1004780021080319402A412A462AF609F709F60AEB
:100488000319F70A7708F5007608F40008000B1C32
:100498004E2A4F2A702A831203130618542A552A03
:1004A8005A2A0130F00070088807602A86185D2AE9
:1004B8005E2A602A01308802F301061C642A652A34
:1004C8006B2A861C682A692A6B2AF301F30A7308C7
:1004D800F0007008B6000B1072088A00710E8300D5
:1004E800FE0E7E0E0900831203132308F70022086C
:1004F800F6006430F4000030F5000A128A11F02189
:100508000A128A11750883120313A5007408A4003F
:100518000A30F4000030F5002508F7002408F6003A
:100528000A128A11F0210A128A117408F90079084E
:1005380083120313A6002608080002308A00040864
:10054800840A8207003445346C34203476346134AC
:100558006C346F3472342034643465346C34203431
:10056800703475346534723474346F3420344434E0
:100578002034653473343A34203400340A340D346A
:100588000A340D3400340A3083120313A2000030F9
:10059800A3002B08F7002A08F6006430F4000030A6
:1005A800F5000A128A11F0210A128A1175088312BD
:1005B8000313A5007408A4000A128A1187210A12DD
:1005C8008A11831203132208AC002C08AD002D08F1
:1005D8000800F600FF2A760884000A128A11A12270
:1005E8000A128A110A128A114D230A128A1101303D
:1005F800F5007508F607760884000A128A11A12208
:100608000A128A11003A031D0A2B0B2BEF2A080045
:10061800643083120313A2000030A3002B08A50046
:100628002A08A4000A128A1187210A128A11831241
:1006380003132208AC002C08AD002D080800F700B1
:10064800F601771C282B292B2D2B7408F50075082B
:10065800F6070310F40D0310F70C7708031D352B6C
:10066800362B252B76080800831603131812181545
:10067800831603178715CF308316031399009A0141
:100688008312031398171813181683160313981652
:100698000800F40083160313981C532B542B4E2B7D
:1006A80074088312031399000800831203131A08AD
:0206B800080038
:04400E00D420FF3F7C
:00000001FF
