:020000040000FA
:060000000A128A110C280F
:10000800FE00030EF7000A08F8000A128A11842875
:100018000A128A110F28F001F101F201F301F4012B
:1000280083010A128A11182883120313A001A1015F
:10003800A20124300A128A11AE200A128A11033052
:10004800831603178800890123308316031385005C
:100058002830870070308F040F149F131F129F12CF
:10006800831203131F139F17C3309F054130831258
:100078000313A300A30B3E284128831203131F1464
:100088009F148B170B17831603138C1583120313F6
:100098008C11F201F101850187019F185428552818
:1000A80051281F0CA300230C0F39013A031D5D28AA
:1000B8005E2865281E08A3002308F100C3309F05A9
:1000C80076281F0CA300230C0F39003A031D6D2856
:1000D8006E2876281E08A3002308F2001F08C339DB
:1000E80004389F00203083120313A300A30B7A283F
:1000F8000000831203139F1451280A128A110C2836
:10010800831203138C1D89288A28A4280A128A11AD
:10011800CC200A128A11F6007608F0007003031D3D
:10012800962897289E2872080A128A11DC200A123B
:100138008A11A42871080A128A11DC200A128A116D
:10014800831203138C1178088A00770E8300FE0E41
:100158007E0E0900F900831603138712791DB5284E
:10016800B628BE28831203132208831603139400AB
:100178008715C62883120313200822048316031345
:10018800940087117908831203132104940008004E
:100198000A128A11D5200A128A118312031313082E
:1001A800080083160313141CDA28DB28D528080056
:0C01B800F5007508831203139300080083
:04400E00D420FF3F7C
:00000001FF
