:020000040000FA
:060000000A128A110C280F
:10000800FE00030EF1000A08F2000A128A11F9290B
:100018000A128A110F28F601F701F801F901831273
:100028000313B901BA01BB0183010A128A111C2802
:10003800831603178801890183160313850103308A
:100048008600870188010A128A11D5220A128A11AC
:100058007030831603138F040F148113151495142D
:10006800161496140B108B178B150B108312031391
:10007800B501B50A85018601870188010808B20023
:10008800B3013208AE003308AF000A128A11BE224B
:100098000A128A1183120313B4003408B80008083E
:1000A800B200B3013208AE003308AF000A128A1159
:1000B80075220A128A1183120313B4003408B70098
:1000C8000808B200B3013208A6003308A7000A12D4
:1000D8008A1125220A128A1183120313B4003408E4
:1000E800B6003030B2003208B8073030B2003208FB
:1000F800B7073030B2003208B6073508031D852827
:1001080086288B28050803198A288B281D291C3066
:100118000A128A119B220A128A1101300A128A11C4
:100128009B220A128A118312031338080A128A11B1
:10013800EB220A128A118312031337080A128A1152
:10014800EB220A128A118312031336080A128A1143
:10015800EB220A128A111E300A128A119B220A12F5
:100168008A11831203130508B200B3013208AE00E6
:100178003308AF000A128A11BE220A128A118312AA
:100188000313B4003408B8000508B200B3013208FC
:10019800AE003308AF000A128A1175220A128A11BA
:1001A80083120313B4003408B7000508B200B30182
:1001B8003208A6003308A7000A128A1125220A125B
:1001C8008A1183120313B4003408B6003030B20029
:1001D8003208B8073030B2003208B7073030B20002
:1001E8003208B60701300A128A119B220A128A11B4
:1001F8008312031338080A128A11EB220A128A1191
:100208008312031337080A128A11EB220A128A1181
:100218008312031336080A128A11EB220A128A1172
:100228001C300A128A119B220A128A1183120313A4
:10023800B5012B303A06031D22292329282901302C
:10024800B2003208880730292D303A06031D2D29BF
:100258002E29302901308802BA0142280A128A114F
:100268000C2883120313AB01A71F3B293C29432900
:10027800A609A709A60A0319A70AAB01AB0AA91F71
:10028800462947295029A809A909A80A0319A90A2A
:100298000130F5007508AB06AC01AD01260827044E
:1002A8000319572958298F29AA01AA0A6629013052
:1002B8000310A60DA70DFF3E031D5C290130F500B4
:1002C8007508AA07A71F69296A295B290130031045
:1002D800AC0DAD0DFF3E031D6B2927082902031D38
:1002E800772926082802031C7A297B2982292608CF
:1002F800A8022708031CA903A9022C140130031023
:10030800A70CA60CFF3E031D83290130AA02031D7A
:100318008E298F296A292B08031993299429992949
:10032800AC09AD09AC0A0319AD0A2D08A7002C08C1
:10033800A600080083120313A501A31FA429A52959
:10034800AC29A209A309A20A0319A30AA501A50AAF
:10035800A11FAF29B029B529A009A109A00A03192D
:10036800A10A200821040319BA29BB29EA29A401F2
:10037800A40AC92901300310A00DA10DFF3E031DD9
:10038800BF290130F4007408A407A11FCC29CD2986
:10039800BE2921082302031DD32920082202031C99
:1003A800D629D729DD292008A2022108031CA30386
:1003B800A30201300310A10CA00CFF3E031DDE298F
:1003C8000130A402031DE929EA29CD2925080319CA
:1003D800EE29EF29F429A209A309A20A0319A30AFD
:1003E8002308A1002208A00008000B1CFC29FD29F5
:1003F8001E2A831203130618022A032A082A013028
:10040800F000700888070E2A86180B2A0C2A0E2A74
:1004180001308802F301061C122A132A192A861CA5
:10042800162A172A192AF301F30A7308F00070082C
:10043800B5000B1072088A00710E8300FE0E7E0E46
:100448000900831203132708A3002608A2006430BA
:10045800A0000030A1000A128A119E210A128A11F6
:10046800831203132108A9002008A8000A30A0005D
:100478000030A1002908A3002808A2000A128A1146
:100488009E210A128A11831203132008F5007508A9
:10049800AA002A08080002308A000408840A820791
:1004A800003445346C342034763461346C346F3421
:1004B80072342034643465346C34203470347534C8
:1004C8006534723474346F342034443420346534E1
:1004D80073343A34203400340A340D340A340D3479
:1004E80000340A3083120313A6000030A7002F0837
:1004F800A3002E08A2006430A0000030A1000A1258
:100508008A119E210A128A11831203132108A90055
:100518002008A8000A128A1135210A128A118312AA
:1005280003132608B0003008B10031080800831210
:100538000313A000B12A200884000A128A114F224E
:100548000A128A110A128A11EB220A128A11013040
:10055800F500750883120313A007200884000A1207
:100568008A114F220A128A11003A031DBC2ABD2A99
:100578009F2A0800643083120313A6000030A700E6
:100588002F08A9002E08A8000A128A1135210A127C
:100598008A11831203132608B0003008B10031080D
:1005A80008008316031318121815831603178715E6
:1005B800CF308316031399009A01831203139817F7
:1005C8001813181683160313981687170800F400D3
:1005D80083160313981CF12AF22AEC2A7408831252
:0605E80003139900080056
:04400E00D420FF3F7C
:00000001FF
