:020000040000FA
:060000000A128A110C280F
:10000800FE00030EF0000A08F1000A168A15062AF7
:100018000A128A110F28FA01FB018313CC308400DD
:10002800EF300A168A150D220A128A1183010A1660
:100038008A116D2D83120313D400D41F2428252878
:10004800EF29D409D40A5408803A123E031C2D28FB
:100058002E2826290A30A0000030A1005408F400F8
:10006800F501F41BF5036430F2000030F3000A16C2
:100078008A1580240A128A11730883120313A300B5
:100088007208A2000A168A1541250A128A118312DB
:1000980003132008C60001300310C60DFF3E031DE0
:1000A80050280310460D243E463E8400983003181D
:1000B800013EFF000A168A1500200A128A11C7009D
:1000C8000A168A1500200A128A11C8000A168A150B
:1000D80000200A128A11C9000A168A1500200A127D
:1000E8008A11CA004A08AB004908AA004808A900B2
:1000F8004708A8006430A0000030A1005408A200FE
:10010800A301A21BA3030A168A1541250A128A1104
:10011800831203132008CB0001300310CB0DFF3EE0
:10012800031D912803104B0D483E463E840098302D
:100138000318013EFF000A168A1500200A128A11C8
:10014800CC000A168A1500200A128A11CD000A1658
:100158008A1500200A128A11CE000A168A15002074
:100168000A128A11CF004F08AF004E08AE004D08A2
:10017800AD004C08AC000A128A11B7230A128A1182
:10018800831203132B08D3002A08D2002908D100B0
:100198002808D0000A30F2000030F3005408F400B8
:1001A800F501F41BF5030A168A1580240A128A1130
:1001B800720883120313C60001300310C60DFF3EF8
:1001C800031DE1280310460D463E840098300318AD
:1001D800013EFF000A168A1500200A128A11C7007C
:1001E8000A168A1500200A128A11C8000A168A15EA
:1001F80000200A128A11C9000A168A1500200A125C
:100208008A11CA004A08AB004908AA004808A90090
:100218004708A8005308AF005208AE005108AD00C7
:100228005008AC000A128A11B7230A128A118312E5
:1002380003132B08C5002A08C4002908C30028088E
:10024800C200B62B5408803A753E031C2C292D2970
:10025800BE290A30F2000030F3005408F400F5011A
:10026800F41BF5030A168A1580240A128A117208EB
:1002780083120313C60001300310C60DFF3E031D91
:1002880040290310460D463E840098300318013E6D
:10029800FF000A168A1500200A128A11C7000A16DA
:1002A8008A1500200A128A11C8000A168A15002029
:1002B8000A128A11C9000A168A1500200A128A1120
:1002C800CA004A08AB004908AA004808A90047081C
:1002D800A8000A30A0000030A1005408A200A30121
:1002E800A21BA3030A168A1541250A128A11831232
:1002F80003132008CB0001300310CB0DFF3E031D74
:10030800802903104B0D243E463E84009830031884
:10031800013EFF000A168A1500200A128A11CC0035
:100328000A168A1500200A128A11CD000A168A15A3
:1003380000200A128A11CE000A168A1500200A1215
:100348008A11CF004F08AF004E08AE004D08AD002F
:100358004C08AC000A128A11B7230A128A118312B8
:1003680003132B08C5002A08C4002908C30028085D
:10037800C200B62B5408C60001300310C60DFF3E5C
:10038800031DC1290310460D463E8400983003180A
:10039800013EFF000A168A1500200A128A11C700BA
:1003A8000A168A1500200A128A11C8000A168A1528
:1003B80000200A128A11C9000A168A1500200A129A
:1003C8008A11CA004A08C5004908C4004808C30081
:1003D8004708C200B62B5408803A123E031CF52980
:1003E800F629EE2A0A30A0000030A1005408F400D3
:1003F800F501F41BF5036430F2000030F3000A162F
:100408008A1580240A128A11730883120313A30021
:100418007208A2000A168A1541250A128A11831247
:1004280003132008C60001300310C60DFF3E031D4C
:10043800182A0310460D243E123E840098300318F3
:10044800013EFF000A168A1500200A128A11C70009
:100458000A168A1500200A128A11C8000A168A1577
:1004680000200A128A11C9000A168A1500200A12E9
:100478008A11CA004A08AB004908AA004808A9001E
:100488004708A8006430A0000030A1005408A2006A
:10049800A301A21BA3030A168A1541250A128A1171
:1004A800831203132008CB0001300310CB0DFF3E4D
:1004B800031D592A03104B0D483E123E8400983004
:1004C8000318013EFF000A168A1500200A128A1135
:1004D800CC000A168A1500200A128A11CD000A16C5
:1004E8008A1500200A128A11CE000A168A150020E1
:1004F8000A128A11CF004F08AF004E08AE004D080F
:10050800AD004C08AC000A128A11B7230A128A11EE
:10051800831203132B08D3002A08D2002908D1001C
:100528002808D0000A30F2000030F3005408F40024
:10053800F501F41BF5030A168A1580240A128A119C
:10054800720883120313C60001300310C60DFF3E64
:10055800031DA92A0310460D123E84009830031883
:10056800013EFF000A168A1500200A128A11C700E8
:100578000A168A1500200A128A11C8000A168A1556
:1005880000200A128A11C9000A168A1500200A12C8
:100598008A11CA004A08AB004908AA004808A900FD
:1005A8004708A8005308AF005208AE005108AD0034
:1005B8005008AC000A128A11B7230A128A11831252
:1005C80003132B08C5002A08C4002908C3002808FB
:1005D800C200B62B5408803A753E031CF42AF52A4B
:1005E800862B0A30F2000030F3005408F400F501BD
:1005F800F41BF5030A168A1580240A128A11720858
:1006080083120313C60001300310C60DFF3E031DFD
:10061800082B0310460D123E840098300318013E43
:10062800FF000A168A1500200A128A11C7000A1646
:100638008A1500200A128A11C8000A168A15002095
:100648000A128A11C9000A168A1500200A128A118C
:10065800CA004A08AB004908AA004808A900470888
:10066800A8000A30A0000030A1005408A200A3018D
:10067800A21BA3030A168A1541250A128A1183129E
:1006880003132008CB0001300310CB0DFF3E031DE0
:10069800482B03104B0D243E123E8400983003185B
:1006A800013EFF000A168A1500200A128A11CC00A2
:1006B8000A168A1500200A128A11CD000A168A1510
:1006C80000200A128A11CE000A168A1500200A1282
:1006D8008A11CF004F08AF004E08AE004D08AD009C
:1006E8004C08AC000A128A11B7230A128A11831225
:1006F80003132B08C5002A08C4002908C3002808CA
:10070800C200B62B5408C60001300310C60DFF3EC8
:10071800031D892B0310460D123E840098300318E0
:10072800013EFF000A168A1500200A128A11C70026
:100738000A168A1500200A128A11C8000A168A1594
:1007480000200A128A11C9000A168A1500200A1206
:100758008A11CA004A08C5004908C4004808C300ED
:100768004708C2000800831203132B088039B00021
:100778003008B5002B08B0003007B1003108BB00C5
:10078800AA1FC72BC82BC92B3B143B080319CD2B19
:10079800CE2BDD2B3B0A031DD22BD32BDB2B0030BA
:1007A800AB000030AA000030A9000030A800AA174A
:1007B800E52B0030AB000030AA000030A900003063
:1007C800A8002F088039B0003008B5062F08B000FF
:1007D8003007B1003108B600AE1FF32BF42BF52B10
:1007E800361436080319F92BFA2B092C360A031D7F
:1007F800FE2BFF2B072C0030AF000030AE0000307E
:10080800AD000030AC00AE17112C0030AF00003046
:10081800AE000030AD000030AC0036080319152CCE
:10082800162C1B2C3B08031D1A2C1B2C242C0030C7
:10083800AB000030AA000030A9000030A800172F34
:100848002808B0003008F2002E080A128A11D627AC
:100858000A128A11730883120313C1007208C000B8
:100868004008B000B101B201B3013308BA00320840
:10087800B9003108B8003008B7004108B000B1012C
:10088800B201B3013308BF003208BE003108BD0011
:100898003008BC002908B0003008F2002D080A1200
:1008A8008A11D6270A128A11730883120313C1000A
:1008B8007208C0004008B000B101B201B3013008AD
:1008C800B707310803110318013E03196C2CB80748
:1008D800320803110318013E0319732CB9073308B2
:1008E80003110318013E03197A2CBA074108B00016
:1008F800B101B201B3013008BC0731080311031874
:10090800013E0319882CBD07320803110318013E64
:1009180003198F2CBE07330803110318013E03196E
:10092800962CBF072A08B0003008F2002C080A12DB
:100938008A11D6270A128A11730883120313C10079
:100948007208C0004008B000B101B201B30130081C
:10095800B707310803110318013E0319B42CB8076F
:10096800320803110318013E0319BB2CB9073308D9
:1009780003110318013E0319C22CBA074108B0003D
:10098800B101B201B3013008BC07310803110318E3
:10099800013E0319D02CBD07320803110318013E8C
:1009A8000319D72CBE07330803110318013E031996
:1009B800DE2CBF070830B0000310B70DB80DB90D15
:1009C800BA0DB00BE02C2908B0003008F2002C0852
:1009D8000A128A11D6270A128A117308831203137E
:1009E800C1007208C0004008B0004108B100B2015F
:1009F800B3013008B707310803110318013E031982
:100A0800062DB807320803110318013E03190D2DEE
:100A1800B907330803110318013E0319142DBA0747
:100A28002808B0003008F2002D080A128A11D627CB
:100A38000A128A11730883120313C1007208C000D6
:100A48004008B0004108B100B201B3013008B7074F
:100A5800310803110318013E0319332DB807320872
:100A680003110318013E03193A2DB907330803117E
:100A78000318013E0319412DBA070830B0000310CE
:100A8800B70DB80DB90DBA0DB00B432D2808B0003D
:100A98003008F2002C080A128A11D6270A128A1185
:100AA800730883120313C1007208C0004008B00025
:100AB8004108B100B201B3013008B707310803118A
:100AC8000318013E0319692DB807320803110318EA
:100AD800013E0319702DB907330803110318013EAD
:100AE8000319772DBA072908B0003008F2002E083C
:100AF8000A128A11D6270A128A117308831203135D
:100B0800C1007208C0004008B0004108B100B2013D
:100B1800B3013008BC07310803110318013E03195B
:100B2800962DBD07320803110318013E03199D2DA8
:100B3800BE07330803110318013E0319A42DBF078C
:100B48002A08B0003008F2002D080A128A11D627A8
:100B58000A128A11730883120313C1007208C000B5
:100B68004008B0004108B100B201B3013008BC0729
:100B7800310803110318013E0319C32DBD073208BC
:100B880003110318013E0319CA2DBE0733080311C8
:100B98000318013E0319D12DBF072A08B0003008F9
:100BA800F2002E080A128A11D6270A128A1173082F
:100BB80083120313C1007208C0004008B000410846
:100BC800B100B201B30108300310B00DB10DB20D80
:100BD800B30DFF3E031DE82D3008BC073108031193
:100BE8000318013E0319F92DBD0732080311031834
:100BF800013E0319002EBE07330803110318013EF6
:100C08000319072EBF073708B0003808B1003908A4
:100C1800B2003A08B30018300310B30CB20CB10C90
:100C2800B00CFF3E031D102E3008BC07310803111D
:100C38000318013E0319212EBD07320803110318BA
:100C4800013E0319282EBE07330803110318013E7D
:100C580003192F2EBF070830B0000310B70DB80DC9
:100C6800B90DBA0DB00B312E3B083607B000B101F3
:100C7800B10D3008823EC00031080318013EFF3E26
:100C8800C100632E0130B0000310BC0DBD0DBE0DB8
:100C9800BF0DB00B482EBA1F522E532E542E3C14A3
:100CA8000130B0000310B70DB80DB90DBA0DB00B77
:100CB800562EFF30C0070318C10AFF30C107BE1FF8
:100CC800662E672E462EB601BA1F6B2E6C2E882E06
:100CD800FF303705B000FF303805B100FF30390567
:100CE800B2007F303A05B3003308320431043004CF
:100CF80003197F2E802E832EB601B60A882E3C1C3F
:100D0800862E872E882E802E360803198C2E8D2E3F
:100D1800BE2E0130BC07003003180130BD0700307B
:100D280003180130BE07003003180130BF073F1C0D
:100D38009E2E9F2EBE2E3C08B0003D08B1003E08F6
:100D4800B2003F08B3000130B400330DB30CB20C4D
:100D5800B10CB00CB40BA92E3308BF003208BE008A
:100D68003108BD003008BC000130C0070318C10AB3
:100D78000030C1074108803AFF0080307F02031D20
:100D8800C72EFF304002031CCA2ECB2ED62E7F3032
:100D980083120313BF008030BE000030BD00003056
:100DA800BC000B2F831203134108803AFF008030E8
:100DB8007F02031DE12E013040020318E42EE52EC8
:100DC800F12E003083120313BF000030BE00003044
:100DD800BD000030BC00B5010B2F8312031340087F
:100DE800B0003008BB00FF30BC05FF30BD057F30C8
:100DF800BE050030BF053B1C022F032F042FBE1772
:100E08003B08B0000310300CB1003108BF003508B2
:100E1800B0003008BF043F08AB003E08AA003D08F8
:100E2800A9003C08A80008000310740D750D831272
:100E38000313A0002008A6002608031D242F252F31
:100E48002E2F0030F5000030F4000030F3000030A1
:100E5800F200D52F0310780D790DA0002008A50009
:100E68002508031D382F392F3A2F252FF417FF3067
:100E7800F205FF30F305FF30F4050030F505F817EB
:100E8800FF30F605FF30F705FF30F8050030F905AB
:100E98000030A4000030A3000030A2000030A10000
:100EA8007F30A602A0302507A0002008A602203027
:100EB800A0002008A5000130A0000310A10DA20D7C
:100EC800A30DA40DA00B612F79087502031D762FC1
:100ED80078087402031D762F77087302031D762F96
:100EE80076087202031C792F7A2F892F7608F2026E
:100EF8007708031C770FF3027808031C780FF402B5
:100F08007908031C790FF50221140130A0000310A1
:100F1800F20DF30DF40DF50DA00B8B2F0130A5028A
:100F2800031D972F982F5F2FA61F9B2F9C2FB62F3F
:100F38002608803A9F3E0318A22FA32FA42F252FFF
:100F480001300310A40CA30CA20CA10CFF3E031D3E
:100F5800A52F0130A0002008A607031DB42FB52F28
:100F6800A42FCD2F20302602031CBB2FBC2FC82F47
:100F7800252F0130A0000310A10DA20DA30DA40D73
:100F8800A00BBF2F0130A6022608031DCC2FCD2FA2
:100F9800BD2F2408F5002308F4002208F3002108D7
:100FA800F200080083120313A400A001A101720833
:100FB800F400F5017408A2007508A300241CE52FAD
:100FC800E62FEC2F2208A0070318A10A2308A1077F
:100FD80001300310A20DA30DFF3E031DED2F0310DA
:100FE800A40C2408031DF92FFA2FE22F2108F3007F
:060FF8002008F2000800D1
:10100600F20083160313981C09280A28042872087C
:10101600831203139900080083160313C4006C306F
:10102600A8002808B100CF2F2530470603191C2831
:101036001D2829284708A800440884002808831387
:1010460080000130A8002808C407CF2FB801B901D5
:10105600B601B701831203136B08FF006A08840008
:101066000A168A1500200A128A150A168A152022DF
:101076000A128A15031C402841288D28831603135B
:10108600B801B9010A30F2000030F30083160313E9
:101096003908F5003808F4000A168A1592220A1251
:1010A6008A15730883160313B9007208B8008312F1
:1010B60003136B08FF006A0884000A168A150020CD
:1010C6000A128A15D03E83160313A800FF300318B0
:1010D6000030A9002808B8070318B90A2908B90773
:1010E600013083120313EA070318EB0A0030EB07FB
:1010F6006B08FF006A0884000A168A1500200A1287
:101106008A150A168A1520220A128A1503188C28AF
:101116008D284528831203136B08FF006A08840094
:101126000A168A1500200A128A152E3A031D9C28D3
:101136009D28F728831603133717013083120313EC
:10114600EA070318EB0A0030EB0783160313C50101
:10115600C601E3280A30F2000030F30083160313B9
:101166004608F5004508F4000A168A1592220A1266
:101176008A15730883160313C6007208C500831206
:1011860003136B08FF006A0884000A168A150020FC
:101196000A128A15D03E83160313A800FF300318DF
:1011A6000030A9002808C5070318C60A2908C6077B
:1011B600013083120313EA070318EB0A0030EB072A
:1011C60083126B08FF006A0884000A168A1500203D
:1011D6000A128A150A168A1520220A128A15031877
:1011E600F528F628AD28FF2883160313C501C60186
:1011F6003716FF2837153329831203136B08831616
:101206000313A900831203136A0883160313A800A5
:1012160083120313EA0A0319EB0A83160313290838
:1012260083120313FF008316031328088400831216
:1012360003130A168A1500200A128A158316031349
:10124600C700AA00AB012B08003A03192B29CF2FA0
:101256002A08003A0319FB2F663A0319FD28CF2FF7
:1012660000303605A80007303705A90028082904EC
:1012760003193E293F290C2F371E422943294729A6
:101286000630C5000030C60031088400831300080C
:10129600C000840A0008C100840A0008C200840A4B
:1012A6000008C3000430A8002808B1074308F50069
:1012B6004208F4004108F3004008F2000030F9004B
:1012C6000030F8000030F7000030F6000A168A15E4
:1012D600A0260A128A150318712972298F298316E6
:1012E60003134308F5004208F4004108F3004008E0
:1012F600F2000A168A1515220A128A15750883162F
:101306000313C3007408C2007308C1007208C0004A
:101316000330B6040030B70483160313BE01BF01C1
:101326004308F5004208F4004108F3004008F200C3
:101336000030F9000030F8000030F7000030F60009
:101346000A168A158A230A128A150318AB29AC29AC
:10135600AC2A031083160313420D430D823EBE00D2
:10136600FF3003180030BF00FF30BE070318BF0A66
:10137600FF30BF070330F2000030F3003F08F500EE
:101386003E08F4000A168A1592220A128A15730874
:1013960083160313BF007208BE000A3083120313BC
:1013A600A0000030A100831603133F088312031325
:1013B600A300831603133E0883120313A2000A1622
:1013C6008A1541250A128A158312031321088316EA
:1013D6000313BF0083120313200883160313BE00F2
:1013E600BF1FF629F729FD29FF30BE070318BF0ADC
:1013F600FF30BF073E03FF3A0A128A111E200A1267
:101406008A1583120313450883160313BD0083123E
:101416000313440883160313BC0083120313430803
:1014260083160313BB0083120313420883160313A8
:10143600BA00430883120313AB0083160313420852
:1014460083120313AA00831603134108831203139E
:10145600A90083160313400883120313A8008316FA
:1014660003133D0883120313AF00831603133C08CE
:1014760083120313AE00831603133B088312031370
:10148600AD00831603133A0883120313AC000A1245
:101496008A11B7230A128A15831203132B0883169F
:1014A6000313BD00831203132A0883160313BC001B
:1014B60083120313290883160313BB008312031335
:1014C600280883160313BA003D08F5003C08F4000B
:1014D6003B08F3003A08F2003F30F9008030F8008C
:1014E6000030F7000030F6000A168A15A0260A1208
:1014F6008A1503187F2A802A892AFF308316031348
:10150600BE070318BF0AFF30BF07AC2A83160313B2
:101516003D08F5003C08F4003B08F3003A08F200E9
:101526004130F9002030F8000030F7000030F600B6
:101536000A168A15A0260A128A15031CA32AA42AAB
:10154600AC2A013083160313BE070318BF0A003006
:10155600BF07831603134608803AFF0080307F02D8
:10156600031DB72A0D3045020318BA2ABB2A022BDF
:101576008316031345080A168A11C0200A128A1513
:10158600831203134508D9004408D8004308D7003E
:101596004208D60083160313430883120313DD00A3
:1015A60083160313420883120313DC008316031306
:1015B600410883120313DB008316031340088312CA
:1015C6000313DA000A168A11E5220A128A15831213
:1015D6000313590883160313C30083120313580811
:1015E60083160313C20083120313570883160313CB
:1015F600C10083120313560883160313C000831613
:1016060003133F08803AFF0080307F02031D0D2B35
:101616000A303E020318102B112B622B831603137C
:101626004308F5004208F4004108F3004008F200C0
:101636000030F9000030F8000030F7000030F60006
:101646000A168A158A230A128A1503182B2B2C2BA5
:10165600D42B83160313430883120313D80083166F
:101666000313420883120313D7008316031341089A
:1016760083120313D6008316031340088312031341
:10168600D5000A168A1524260A128A158312031310
:101696005808570456045504031D522B532BD42BBC
:1016A600831603133F08803AFF0080307F02031D34
:1016B6005E2B02303E02031C612B622BD42B831659
:1016C60003133D08F5003C08F4003B08F3003A0814
:1016D600F2004030F9008930F8007030F7005F30D2
:1016E600F6000A168A15A0260A128A1503187C2BFC
:1016F6007D2B862BF73083160313BE070318BF0A0C
:10170600FF30BF078E2BF83083160313BE0703186E
:10171600BF0AFF30BF073E080A128A111E200A12AE
:101726008A1583120313450883160313BD0083121B
:101736000313440883160313BC00831203134308E0
:1017460083160313BB008312031342088316031385
:10175600BA004308F5004208F4004108F3004008C7
:10176600F2003D08F9003C08F8003B08F7003A088B
:10177600F6000A128A1118270A128A1575088316A6
:101786000313B5007408B4007308B3007208B200FE
:101796000030C3000030C2000030C1000030C0007D
:1017A6003A2C83160313430883120313D8008316B7
:1017B6000313420883120313D70083160313410849
:1017C60083120313D60083160313400883120313F0
:1017D600D5000A168A1524260A128A1583120313BF
:1017E600580883160313B50083120313570883168C
:1017F6000313B40083120313560883160313B300AE
:1018060083120313550883160313B2003508F50037
:101816003408F4003308F3003208F20000300A16E8
:101826008A1544270A128A15750883160313A3001E
:101836007408A2007308A1007208A0004308A7005C
:101846004208A6004108A5004008A4000A168A1509
:10185600DA230A128A15831603132308C300220803
:10186600C2002108C1002008C000BE01BF01C70197
:10187600C70A4708A80001300310A80DFF3E031D44
:101886003F2C0310280D7A3E840098300318013E41
:1018960083120313FF000A168A1500200A128A15FE
:1018A60083160313A900831203130A168A15002050
:1018B6000A128A1583160313AA00831203130A1643
:1018C6008A1500200A128A1583160313AB008312A9
:1018D60003130A168A1500200A128A1583160313A3
:1018E600AC002C083502031D822C2B083402031D84
:1018F600822C2A083302031D822C2908320203187F
:10190600852C862C872C912C0130A8002808C70727
:101916000A304706031D902C912C3C2C470845079E
:10192600A80046080318460AA9003E082807AA0088
:101936003F0803183F0A2907AB002A08B8022B08FC
:10194600031CB903B902450846040319AB2CAC2C99
:10195600B22CFF30B8070318B90AFF30B9070330B5
:101966003605A80000303705A90028082904031900
:10197600BD2CBE2CD32CFF30B8070318B90AFF3094
:10198600B907D32C203083160313A800440884001B
:101996002808831380000130A8002808C407BE2C3D
:1019A6003908803AFF0080307F02031DDC2C0130AD
:1019B60038020318DF2CE02CC52C033083160313E2
:1019C6003605A80000303705A900280829040319A0
:1019D600ED2CEE2C652D2D30A80044088400280837
:1019E600831380000130A8002808C407652D470826
:1019F600A80001300310A80DFF3E031DFD2C0310A7
:101A0600280D7A3E840098300318013E8312031392
:101A1600FF000A168A1500200A128A15F2000A1615
:101A26008A1500200A128A15F3000A168A15002064
:101A36000A128A15F4000A168A1500200A128A1557
:101A4600F500831603133508F9003408F800330847
:101A5600F7003208F6000A168A15D9240A128A15E2
:101A6600750883160313BD007408BC007308BB0019
:101A76007208BA000030F5000030F4000030F300C0
:101A86000A30F2003D08F9003C08F8003B08F70070
:101A96003A08F6000A168A152A240A128A157508C3
:101AA60083160313BD007408BC007308BB007208DC
:101AB600BA003A08303EA800440884002808831378
:101AC6008000F52C0130C702470A031D6B2D6C2DD3
:101AD600FA2C802D303083160313A80044088400A6
:101AE6002808831380000130A8002808C407FF30A7
:101AF600BE070318BF0AFF30BF073F08803AFF0042
:101B060080307F02031D892D01303E0203188C2D83
:101B16008D2D6D2D831603134608803AFF00803005
:101B26007F02031D982D09304502031C9B2D9C2D19
:101B3600A32D083083160313A8002808C700A92D73
:101B4600831603134508A8002808C7004708A800FD
:101B5600A9012808C5022908031CC603C6024708AE
:101B66000319B62DB72DC22D2E30A80044088400C7
:101B76002808831380000130A8002808C4074708F6
:101B86000A128A111E200A128A15831203134508A7
:101B960083160313B000831203134408831603133A
:101BA600AF0083120313430883160313AE00831298
:101BB6000313420883160313AD0030088312031380
:101BC600AF00831603132F0883120313AE00831688
:101BD60003132E0883120313AD00831603132D0877
:101BE60083120313AC0083160313430883120313F3
:101BF600AB0083160313420883120313AA0083164D
:101C06000313410883120313A90083160313400824
:101C160083120313A8000A128A11B7230A128A151F
:101C2600831203132B08D8002A08D7002908D600E8
:101C36002808D5000A168A1524260A128A15831240
:101C46000313580883160313B500831203135708AA
:101C560083160313B4008312031356088316031363
:101C6600B30083120313550883160313B200EC2E38
:101C76004708A80001300310A80DFF3E031D3E2EA5
:101C86000310280D7A3E840098300318013E831213
:101C96000313FF000A168A1500200A128A15F2009D
:101CA6000A168A1500200A128A15F3000A168A15E2
:101CB60000200A128A15F4000A168A1500200A1254
:101CC6008A15F500831603133508F9003408F80061
:101CD6003308F7003208F6000A168A15D9240A12C4
:101CE6008A15750883160313BD007408BC007308B3
:101CF600BB007208BA000030F5000030F400003076
:101D0600F3000A30F2003D08F9003C08F8003B08F1
:101D1600F7003A08F6000A168A152A240A128A15C6
:101D2600750883160313BD007408BC007308BB0056
:101D36007208BA003A08303EA80044088400280811
:101D4600831380000130A8002808C4074708A800AC
:101D560001300310A80DFF3E031DAC2E0310280D05
:101D66007A3E840098300318013E83120313FF0065
:101D76000A168A1500200A128A15F2000A168A1512
:101D860000200A128A15F3000A168A1500200A1284
:101D96008A15F4000A168A1500200A128A15F5001B
:101DA600831603133508F9003408F8003308F700E2
:101DB6003208F6000A168A152A240A128A157508A8
:101DC60083160313B5007408B4007308B3007208D1
:101DD600B2000130C702470A031DF22EF32E3B2E36
:101DE600052F3030A800440884002808831380009B
:101DF6000130A8002808C407FF30C5070318C60A23
:101E0600FF30C60745084604031D0A2F0B2FF42E84
:101E1600CF2F45084604031D112F122F202F3508FA
:101E2600340433043204031D192F1A2F202F0130D6
:101E3600C5070318C60A0030C6074608803A803C24
:101E4600031D272F4508470203182A2F2B2F322F51
:101E5600831603134508A8002808C7004A2F8316CF
:101E660003134608803AA80080302802031D3D2F40
:101E7600470845020318402F412F4A2F83160313A4
:101E86004708A800A9012808C5002908C600831626
:101E96000313380839040319512F522F642F0330C6
:101EA6003605A80000303705A900280829040319BB
:101EB6005D2F5E2F642FFF30B8070318B90AFF3075
:101EC600B907371F672F682F832F4608803AA80067
:101ED6003908803A2802031D722F38084502031874
:101EE600752F762F7F2F831603134508B8024608F1
:101EF600031CB903B902832F83160313B801B90172
:101F06003908803A803C031D8A2F38084702031897
:101F16008D2F8E2F9A2F831603134708A800A90129
:101F26002808B8022908031CB903B9029E2F831694
:101F36000313B801B901380839040319A32FA42FD4
:101F4600BB2F2030A8004408840028088313800093
:101F56000130A8002808C407FF30B8070318B90ADB
:101F6600FF30B90738083904031DBA2FBB2FA42F39
:101F760003303605A80000303705A90028082904D3
:101F86000319C62FC72FCF2F2D30A8004408840071
:101F96002808831380002428831203136B088316F2
:101FA6000313A900831203136A0883160313A800F8
:101FB60083120313EA0A0319EB0A8316031329088B
:101FC60083120313FF008316031328088400831269
:101FD60003130A168A1500200A128A15831603139C
:101FE600AA002A08C7004708031DFA2FFB2F172847
:0A1FF60044088400831380010800F2
:10200600720883120313A0007308A1007408A200CB
:102016000310210D220DA3002308A9002908031D82
:10202600152816281F280030F5000030F40000306F
:10203600F3000030F200BF287608A0007708A10060
:102046007808A2000310210D220DA3002308A80082
:102056002808031D2F28302831281628F317FF30AB
:10206600F205FF30F3050030F405F717FF30F605EB
:10207600FF30F7050030F8050030A7000030A60055
:102086000030A5000030A4007F30A9029830280750
:10209600A0002008A9021830A0002008A8000130DE
:1020A600A0000310A40DA50DA60DA70DA00B542886
:1020B60078087402031D652877087302031D6528D6
:1020C60076087202031C6828692874287608F202CA
:1020D6007708031C770FF3027808031C780AF402CA
:1020E600241401300310F20DF30DF40DFF3E031D11
:1020F60075280130A802031D812882285228A91FAD
:1021060085288628A0282908803A973E03188C2817
:102116008D288E28162801300310A70CA60CA50CB6
:10212600A40CFF3E031D8F280130A0002008A9073C
:10213600031D9E289F288E28B72818302902031CC5
:10214600A528A628B22816280130A0000310A40D41
:10215600A50DA60DA70DA00BA9280130A9022908D7
:10216600031DB628B728A7282708F5002608F40077
:102176002508F3002408F200080083120313D50093
:102186006E305502031CC828C928E4293F30AB002D
:102196000030AA000030A9000030A8006430A0007A
:1021A6000030A1005508C600C7014608A20047082E
:1021B600A3000A168A1544230A168A1183120313EA
:1021C6002008C80001300310C80DFF3E031DE62895
:1021D6000310480D8E3E840098300318013EFF0020
:1021E6000A168A1500200A168A11C9000A168A15C7
:1021F60000200A168A11CA000A168A1500200A1635
:102206008A11CB000A168A1500200A168A11CC00FC
:102216004C08AF004B08AE004A08AD004908AC00B8
:102226000A128A11B7230A168A11831203132B087E
:10223600D4002A08D3002908D2002808D1000A3081
:10224600A0000030A1005508C600C7014608F400EA
:102256004708F5006430F2000030F3000A168A15CC
:102266000A230A168A11730883120313A30072083D
:10227600A2000A168A1544230A168A11831203132A
:102286002008C80001300310C80DFF3E031D462973
:102296000310480D6A3E840098300318013EFF0083
:1022A6000A168A1500200A168A11C9000A168A1506
:1022B60000200A168A11CA000A168A1500200A1674
:1022C6008A11CB000A168A1500200A168A11CC003C
:1022D6004C08AB004B08AA004A08A9004908A80008
:1022E6005408AF005308AE005208AD005108AC00C8
:1022F6000A128A11B7230A168A11831203132B08AE
:10230600D0002A08CF002908CE002808CD000A30C0
:10231600F2000030F3005508C600C7014608F40075
:102326004708F5000A168A150A230A168A11720842
:1023360083120313C80001300310C80DFF3E031DAE
:102346009F290310480D463E840098300318013E2D
:10235600FF000A168A1500200A168A11C9000A16F5
:102366008A1500200A168A11CA000A168A15002044
:102376000A168A11CB000A168A1500200A168A1137
:10238600CC004C08AB004B08AA004A08A900490833
:10239600A8005008AF004F08AE004E08AD004D082B
:1023A600AC000A128A11B7230A168A118312031384
:1023B6002B08C5002A08C4002908C3002808C20043
:1023C600E42A0B305502031CE929EA299D2A3F30ED
:1023D600AB000030AA000030A9000030A8000A3087
:1023E600A0000030A1005508C600C7014608A2009B
:1023F6004708A3000A168A1544230A168A1183126F
:1024060003132008C80001300310C80DFF3E031D4A
:10241600072A0310480D6A3E840098300318013ECF
:10242600FF000A168A1500200A168A11C9000A1624
:102436008A1500200A168A11CA000A168A15002073
:102446000A168A11CB000A168A1500200A168A1166
:10245600CC004C08AF004B08AE004A08AD00490856
:10246600AC000A128A11B7230A168A1183120313C3
:102476002B08D4002A08D3002908D2002808D10046
:102486000A30F2000030F3005508C600C7014608BE
:10249600F4004708F5000A168A150A230A168A1157
:1024A600720883120313C80001300310C80DFF3EE3
:1024B600031D582A0310480D463E84009830031821
:1024C600013EFF000A168A1500200A168A11C90065
:1024D6000A168A1500200A168A11CA000A168A15D3
:1024E60000200A168A11CB000A168A1500200A1641
:1024F6008A11CC004C08AB004B08AA004A08A90078
:102506004908A8005408AF005308AE005208AD00B1
:102516005108AC000A128A11B7230A168A118312CF
:1025260003132B08C5002A08C4002908C30028087D
:10253600C200E42A3F30AB000030AA000030A900F8
:102546000030A8005508C60001300310C60DFF3E36
:10255600031DA82A0310460D463E84009830031832
:10256600013EFF000A168A1500200A168A11C700C6
:102576000A168A1500200A168A11C8000A168A1534
:1025860000200A168A11C9000A168A1500200A16A2
:102596008A11CA004A08AF004908AE004808AD00D3
:1025A6004708AC000A128A11B7230A168A11831249
:1025B60003132B08C5002A08C4002908C3002808ED
:1025C600C20008008312031359088039DE005E0832
:1025D600E6005908DE005E07DF005F08E800D81F46
:1025E600F52AF62AF72A681468080319FB2AFC2A32
:1025F6000C2B680A031D002B012B092B0030D90078
:102606000030D8000030D7000030D600D817D901E6
:10261600142B0030D9000030D8000030D70000302D
:10262600D6005D088039DE005E08E70067086606AA
:1026360003191E2B1F2B202B66175D08DE005E0775
:10264600DF005F08E700DC1F292B2A2B2B2B6714E2
:10265600670803192F2B302B402B670A031D342BD9
:10266600352B3D2B0030DD000030DC000030DB0078
:102676000030DA00DC17DD01482B0030DD000030C9
:10268600DC000030DB000030DA006808670203185F
:102696004D2B4E2B922B661F512B522B562B8030D7
:1026A600DE005E08E6066808DE005E08E9006708E8
:1026B600DE005E08E8006908DE005E08E7005608EE
:1026C600DE005E08E9005A08DE005E08D6006908EA
:1026D600DE005E08DA005708DE005E08E9005B08E7
:1026E600DE005E08D7006908DE005E08DB005808D9
:1026F600DE005E08E9005C08DE005E08D8006908B6
:10270600DE005E08DC005908DE005E08E9005D08B0
:10271600DE005E08D9006908DE005E08DD00E9011A
:102726006708DE00DF015F08E10068085E02E0007E
:10273600031CE1036108803AFF0080307F02031D1D
:10274600A62B1A306002031CA92BAA2BE72B831297
:1027560003135908580457045604031DB32BB52B0D
:102766000130B62B0030DE005E08E9000030D900EB
:102776000030D8000030D7000030D6006708DE00F1
:102786005E08E800EF2B691CC92BCA2BD32B6908FE
:10279600DE0003105E0C0138DF005F08E900D52B70
:1027A6000310E90C561CD82BD92BDA2BE91701306C
:1027B600DE00590DD90CD80CD70CD60CDE0BDC2B51
:1027C6000130DE005E08E80783120313670868021B
:1027D600031CEE2BEF2BC62B661BF22BF32B3E2C8A
:1027E6006808031DF72BF82B012C0030D9000030A8
:1027F600D8000030D7000030D6006C2D5A08D60716
:102806005B0803110318013E03190A2CD7075C085D
:1028160003110318013E0319112CD8075D08031193
:102826000318013E0319182CD907591C1B2C1C2C04
:10283600F22C691C1F2C202C292C6908DE000310A1
:102846005E0C0138DF005F08E9002B2C0310E90C51
:10285600561C2E2C2F2C302CE9170130DE00590D7A
:10286600D90CD80CD70CD60CDE0B322C0130DE007E
:102876005E08E807F22C5908803AFF005D08803AA6
:102886007F02031D502C5C085802031D502C5B0868
:102896005702031D502C5A0856020318532C542C69
:1028A600AC2CFF30DE00FF30DF00FF30E000FF30F1
:1028B600E1005A08E2005B08E3005C08E4005D08FA
:1028C600E5005608E2025708031C570F6B2C6C2CC8
:1028D600E3025808031C580F712C722CE4025908A5
:1028E600031C590F772C782CE5026208DE07630873
:1028F6000318630F7F2C802CDF0764080318640F0E
:10290600852C862CE00765080318650AE10761082F
:10291600D9006008D8005F08D7005E08D60080306E
:10292600DE005E08E606E909E90A6908031D9C2C33
:102936009D2CBA2C0130D607003003180130D7077A
:10294600003003180130D807003003180130D907CA
:10295600BA2C5A08D6025B08031C5B0FD7025C0828
:10296600031C5C0FD8025D08031C5D0FD9025908D1
:10297600580457045604031DC12CC22CEE2C6908BA
:10298600031DC62CC72CEE2C0030D9000030D80011
:102996000030D7000030D6006C2D0130DE00031069
:1029A600D60DD70DD80DD90DDE0BD22CE91FDC2C98
:1029B600DD2CDE2C5614691CE12CE22CE52C0314CC
:1029C600E90DE72C0310E90D68080319EB2CEC2C34
:1029D600EE2C0130E802D81FF12CF22CD02CE701A6
:1029E600E91FF62CF72C052D69087F390319FC2CF5
:1029F600FD2C002DE701E70A052D561C032D042D9D
:102A0600052DFD2C67080319092D0A2D3E2D0130D1
:102A1600D607003003180130D707003003180130FD
:102A2600D807003003180130D907591C1B2D1C2D5F
:102A36003E2D5608DE005708DF005808E00059080A
:102A4600E1000130E200610DE10CE00CDF0CDE0C70
:102A5600E20B262D6108D9006008D8005F08D70070
:102A66005E08D600680A0319392D3A2D3E2D01302D
:102A7600DE005E08E807680A0319422D432D482D3B
:102A86006808031D472D482D562D0030D90000300B
:102A9600D8000030D7000030D6006808031D542D3A
:102AA600552D562DE601681C592D5A2D5C2DD8172B
:102AB600602D7F30DE005E08D8056808DE00031052
:102AC6005E0CDF005F08D900E61F6A2D6B2D6C2DAA
:102AD600D91708000A168A15AA250A168A110A168F
:102AE6008A1532220A168A11603083160317880067
:102AF600890183160313850180308700880107301A
:102B0600890070308F040F149F131F129F128312B7
:102B160003131F139F171F08C33914389F00413032
:102B260083160313C800C80B962D992D8312031321
:102B36001F149F1483160313DC01DB010030D7003A
:102B46000030D6000030D5000030D4000030D3006D
:102B56000030D2000030D1000030D00083120313C1
:102B66008501870188018901831603135C08C80063
:102B76004808DA005B08C8004808D9008312031326
:102B86009F18C62DC72D062E1F0C83160313C800CB
:102B9600480C0F39063A031DD12DD22DE12D831293
:102BA60003131E0883160313C8004808DB008312AC
:102BB60003131F08C33914389F00FC2D8312031317
:102BC6001F0C83160313C800480C0F39053A031D62
:102BD600ED2DEE2DFC2D831203131E088316031311
:102BE600C8004808DC00831203131F08C3391838CD
:102BF6009F00203083160313C800C80B002E000068
:102C0600831203139F143C30AB00A030AA0090300F
:102C1600A9002E30A800831603135C08C800C9015A
:102C2600CA01CB014B08F5004A08F4004908F30035
:102C36004808F20001300A168A1544270A168A1136
:102C4600750883120313AF007408AE007308AD0055
:102C56007208AC000A128A11B7230A168A11831267
:102C660003132B0883160313D700831203132A08B2
:102C760083160313D600831203132908831603133E
:102C8600D50083120313280883160313D4003C309F
:102C960083120313AB00A030AA009030A9002E3097
:102CA600A800831603135B08C800C901CA01CB013B
:102CB6004B08F5004A08F4004908F3004808F200FA
:102CC60001300A168A1544270A168A1175088312D6
:102CD6000313AF007408AE007308AD007208AC00B1
:102CE6000A128A11B7230A168A11831203132B08B4
:102CF60083160313D300831203132A0883160313C0
:102D0600D20083120313290883160313D1008312FA
:102D16000313280883160313D0003C3083120313D1
:102D2600AB00A030AA009030A9002E30A8000508FC
:102D360083160313C800C901CA01CB014B08F5006D
:102D46004A08F4004908F3004808F20001300A1660
:102D56008A1544270A168A11750883120313AF00D1
:102D66007408AE007308AD007208AC000A128A112E
:102D7600B7230A168A11831203132B08831603132B
:102D8600CF00831203132A0883160313CE0083127F
:102D96000313290883160313CD008312031328088F
:102DA60083160313CC000F3083120313EA00993005
:102DB600EB0083160313570883120313EF008316E1
:102DC6000313560883120313EE00831603135508E4
:102DD60083120313ED00831603135408831203139F
:102DE600EC00E9300A128A150F200A168A110F30F4
:102DF60083120313EA009930EB008316031353087A
:102E060083120313EF00831603135208831203136E
:102E1600EE0083160313510883120313ED00831685
:102E26000313500883120313EC00E3300A128A15C9
:102E36000F200A168A110F3083120313EA00993005
:102E4600EB00831603134F0883120313EF00831658
:102E560003134E0883120313EE00831603134D0863
:102E660083120313ED00831603134C088312031316
:102E7600EC00DD300A128A150F200A168A11F401B9
:102E860000300A168A1547220A168A11F030F40015
:102E96009830F5000A168A15DD220A168A11F40101
:102EA60001300A168A1547220A168A11E930F400FB
:102EB6000030F5000A168A15DD220A168A11063038
:102EC60083160313C8004808F40001300A168A1551
:102ED60047220A168A11E330F4000030F5000A167C
:102EE6008A15DD220A168A110C3083160313C800D0
:102EF6004808F40001300A168A1547220A168A1174
:102F0600DD30F4000030F5000A168A15DD220A16B7
:102F16008A11831603135A085C06031D932F942FF8
:102F26009A2F59085B060319992F9A2FD02FA23092
:102F3600F3009830F4000A168A15B7220A168A1189
:102F4600C130F3009830F4000A168A15B7220A1623
:102F56008A110030F3009930F4000A168A15B72258
:102F66000A168A11E930F3000030F4000A168A15B1
:102F7600B7220A168A11DF30F3009830F4000A16D9
:102F86008A15B7220A168A11E330F3000030F400DE
:102F96000A168A15B7220A168A11831203138C1E83
:102FA600D52FD62FE02F0A168A1502220A168A1165
:102FB60083160313C8004808D8002B308316031362
:102FC6005806031DE72FE82FEF2F0130C8004808E9
:102FD600831203138507F92F2D305806031DF42F8E
:102FE600F52FF92F0130831203138502831603137D
:102FF600D801B72D0A128A110C28FF1B0A28831341
:103006007F1883170008840A0319FF0A08007F083F
:103016007F398A000408840A0319FF0A82000034F3
:10302600003480343F3400340034203441340034DA
:103036000034C8344234003400347A344434003422
:1030460040341C34463400345034C33447340034DE
:103056002434743449348034963418344B34203450
:10306600BC34BE344C3428346B346E344E34F934AC
:10307600023415345034EC347834AD346034CA3408
:10308600F234493471340034003480343F34CD3462
:10309600CC34CC343D340A34D73423343C346F3406
:1030A600123483343A341734B734D1343834AC3428
:1030B600C53427343734BD34373486343534953403
:1030C600BF34D63433347734CC342B3432345F3493
:1030D600703489343034FF34E634DB342E3408342B
:1030E600E5343C341E3460344234A2340D340134A9
:1030F6000034003400340A340034003400346434BC
:10310600003400340034E83403340034003410341E
:10311600273400340034A03486340134003440347B
:1031260042340F34003480349634983400340034FA
:10313600E134F53405340034CA349A343B340A3465
:103146000D340A340D342B34203470346134723427
:1031560061342034613475346D3465346E347434BE
:1031660061347234203463346F346E3474346134B1
:1031760064346F3472340A340D3400342D34203400
:103186007034613472346134203464346934733495
:103196006D3469346E347534693472342034633472
:1031A6006F346E347434613464346F3472340A3478
:1031B6000D340A340D3400340A340D3456346F3469
:1031C6006C34743461346A346534203470346F344A
:1031D600743432343A3420340034533431343A348B
:1031E600203420342034533432343A3420342034DA
:1031F6002034533433343A34003456346F346C3418
:10320600743461346A346534203470346F34743401
:1032160031343A3420340034253433342E343234C5
:063226006634763400342A
:10340400831203131A08080071088A00700E8300DF
:10341400FE0E7E0E090064008001840A040603196E
:10342400003404060E2A7508740473047204031924
:103434001C2A1D2A1F2A8030F5060800F300F20119
:103444003A3073020318272A282A302A30307302AC
:10345400031C2D2A2E2A302AF201F20A720C0800CB
:103464008316031318121815831603178715CF3004
:103474008316031399009A018312031398171813E0
:1034840018168316031398160800F5007508031917
:103494004C2A4D2A552A7408C03E0A168A155D2204
:1034A4000A168A155C2A7408803E0A168A155D225B
:1034B4000A168A150800F3007308831203138800A0
:1034C400071087100630F200F20B662A0000831200
:1034D400031307150630F200F20B6E2A0000831264
:1034E400031307110800F3004230F200F20B782AAC
:1034F4000000730883120313880087100714063032
:10350400F200F20B832A000083120313071506301E
:10351400F200F20B8B2A0000831203130711080038
:10352400F601F701721C972A982A9E2A7408F60756
:103534000318F70A7508F70701300310F40DF50DA9
:10354400FF3E031D9F2A01300310F30CF20CFF3ED3
:10355400031DA62A72087304031DB12AB22A942AF1
:103564007708F3007608F2000800CC2A7408FF00FC
:10357400730884000A168A1500200A168A150A128E
:103584008A1503200A168A150130F3070318F40A72
:103594000030F407740883120313FF0073088400D7
:1035A4000A168A1500200A168A15003A031DDB2A1A
:1035B400DC2AB82A0800F92A4230F600F60BE02A81
:1035C4000000750883120313FF00740884000A16B0
:1035D4008A1500200A168A150A168A1575220A16F3
:1035E4008A150130F4070318F50A0030F507750849
:1035F40083120313FF00740884000A168A1500203E
:103604000A168A15003A031D082B092BDE2A080026
:103614007208730403190F2B102B3F2BF701F70AC1
:103624001E2B01300310F20DF30DFF3E031D142B6E
:103634000130F6007608F707F31F212B222B132BFA
:1036440073087502031D282B72087402031C2B2BAC
:103654002C2B322B7208F4027308031CF503F502B9
:1036640001300310F30CF20CFF3E031D332B013029
:10367400F702031D3E2B3F2B222B7508F300740821
:10368400F200080083120313A501A60120082104F7
:1036940003194D2B4E2B852BA401A40A5C2B01305E
:1036A4000310A00DA10DFF3E031D522B0130F800A5
:1036B4007808A407A11F5F2B602B512B0130031046
:1036C400A50DA60DFF3E031D612B21082302031D3A
:1036D4006D2B20082202031C702B712B782B2008E1
:1036E400A2022108031CA303A30225140130031022
:1036F400A10CA00CFF3E031D792B0130A402031D75
:10370400842B852B602B2608A1002508A000080027
:103714000030720583120313A00000307305A1006A
:1037240080307405A2007F307505A30023082204AD
:1037340021042004031D9F2BA02BA82B0030F5008F
:103744000030F4000030F3000030F2000030760561
:10375400A00000307705A10080307805A2007F30FA
:103764007905A3002308220421042004031DBB2B94
:10377400BC2BC42B0030F9000030F8000030F700F7
:103784000030F60079087506031DD22B78087406FC
:10379400031DD22B77087306031DD22B76087206FD
:1037A4000319D52BD62BD82B0310D92B03140800BF
:1037B400803083160313A306270883120313D9004A
:1037C40083160313260883120313D80083160313E6
:1037D400250883120313D7008316031324088312C6
:1037E4000313D60083160313230883120313DD0087
:1037F40083160313220883120313DC0083160313B6
:10380400210883120313DB00831603132008831299
:103814000313DA000A168A11E5220A168A1583129E
:103824000313590883160313A300831203135808C0
:1038340083160313A200831203135708831603137A
:10384400A10083120313560883160313A000080073
:1038540075087404730472040319312C322C772C08
:1038640083120313A101A10A442C0130A000031008
:10387400F20DF30DF40DF50DA00B392C0130A00061
:103884002008A107F51F472C482C372C750879020E
:10389400031D562C74087802031D562C73087702F6
:1038A400031D562C72087602031C592C5A2C682CC2
:1038B4007208F6027308031C730FF7027408031CE2
:1038C400740FF8027508031C750FF9020130031018
:1038D400F50CF40CF30CF20CFF3E031D692C0130C3
:1038E400A102031D762C772C482C7908F500780862
:1038F400F4007708F3007608F2000800F801F51FD9
:10390400842C852C8C2CF409F509F40A0319F50A86
:10391400F801F80AF31F8F2C902C952CF209F30967
:10392400F20A0319F30A7208730403199A2C9B2CE4
:10393400CA2CF701F70AA92C01300310F20DF30D7C
:10394400FF3E031D9F2C0130F6007608F707F31F96
:10395400AC2CAD2C9E2C73087502031DB32C72087D
:103964007402031CB62CB72CBD2C7208F402730825
:10397400031CF503F50201300310F30CF20CFF3EB7
:10398400031DBE2C0130F702031DC92CCA2CAD2C1B
:1039940078080319CE2CCF2CD42CF409F509F40A99
:1039A4000319F50A7508F3007408F20008000030E2
:1039B40083120313A4000030A3000030A2000030DF
:1039C400A10075087404730472040319EA2CEB2C27
:1039D400382DA501A50AFB2C0130A0000310F20D1F
:1039E400F30DF40DF50DA00BF02C0130A000200810
:1039F400A507F51FFE2CFF2CEE2C0130A0000310B0
:103A0400A10DA20DA30DA40DA00B012D7508790223
:103A1400031D162D74087802031D162D73087702F2
:103A2400031D162D72087602031C192D1A2D292D3B
:103A34007208F6027308031C730FF7027408031C60
:103A4400740FF8027508031C750FF9022114013074
:103A54000310F50CF40CF30CF20CFF3E031D2A2D9D
:103A64000130A502031D372D382DFF2C2408F50045
:103A74002308F4002208F3002108F200080083124E
:103A84000313A501A11F472D482D4F2DA009A109FE
:103A9400A00A0319A10AA501A50AA31F522D532D9B
:103AA4005C2DA209A309A20A0319A30A0130F90093
:103AB4007908A506A601A701200821040319632D8E
:103AC400642D9B2DA401A40A722D01300310A00DB6
:103AD400A10DFF3E031D682D0130F9007908A407EC
:103AE400A11F752D762D672D01300310A60DA70D8E
:103AF400FF3E031D772D21082302031D832D20087B
:103B04002202031C862D872D8E2D2008A202210857
:103B1400031CA303A302261401300310A10CA00C60
:103B2400FF3E031D8F2D0130A402031D9A2D9B2DF2
:103B3400762D250803199F2DA02DA52DA609A709CB
:103B4400A60A0319A70A2708A1002608A00008004E
:103B54008312031388018316031388010710871047
:103B64000711831203130710871007112A30F50079
:103B74008D30F400F40BBC2DF50BBC2DC12D303071
:103B84000A168A155D220A168A150D30F500FB30D7
:103B9400F400F40BCB2DF50BCB2DD02D30300A16C1
:103BA4008A155D220A168A154230F400F40BD82DCA
:103BB400000030300A168A155D220A168A15423032
:103BC400F400F40BE32D000038300A168A155D2248
:103BD4000A168A154230F400F40BEE2D000008306A
:103BE4000A168A155D220A168A154230F400F40B6F
:103BF400F92D000001300A168A155D220A168A156D
:103C04004230F400F40B042E000004300A168A1526
:103C14005D220A168A154230F400F40B0F2E0000C0
:103C24004230F400F40B142E000006300A168A15F4
:103C34005D220A168A150C300A168A155D220A16A8
:103C44008A150800031083120313570D580DD90069
:103C54005908DF005F08031D302E312E3A2E003044
:103C6400D8000030D7000030D6000030D5009F2E99
:103C74005508D9005608DA005708DB005808DC005C
:103C84001F300310DC0CDB0CDA0CD90CFF3E031DD7
:103C9400432E5908DD005D08DE00D717FF30D50537
:103CA400FF30D605FF30D7050030D8059630DF0247
:103CB400DF1F5D2E5E2E782E5F08803A973E031834
:103CC400642E652E662E312E01300310D80CD70CCD
:103CD400D60CD50CFF3E031D672E0130D9005908C0
:103CE400DF07031D762E772E662E8F2E20305F027F
:103CF400031C7D2E7E2E8A2E312E0130D900031016
:103D0400D50DD60DD70DD80DD90B812E0130DF027C
:103D14005F08031D8E2E8F2E7F2E5E080319932EAF
:103D2400942E9F2ED509D609D709D809D50A031987
:103D3400D60A0319D70A0319D80A080000307205F5
:103D440083120313A00000307305A10080307405B2
:103D5400A2007F307505A300230822042104200457
:103D6400031DB52EB62EBE2E0030F5000030F40033
:103D74000030F3000030F20000307605A00000307F
:103D84007705A10080307805A2007F307905A30073
:103D94002308220421042004031DD12ED22EDA2E5E
:103DA4000030F9000030F8000030F7000030F60071
:103DB400F51FDD2EDE2E022F0030A0000030A10002
:103DC4000030A2008030A3007208A0027308031C14
:103DD400730FED2EEE2EA1027408031C740FF32E44
:103DE400F42EA2027508031C750FF92EFA2EA302F5
:103DF4002308F5002208F4002108F3002008F2004B
:103E0400F91F052F062F2A2F0030A0000030A10033
:103E14000030A2008030A3007608A0027708031CBB
:103E2400770F152F162FA1027808031C780F1B2F6C
:103E34001C2FA2027908031C790F212F222FA30221
:103E44002308F9002208F8002108F7002008F600EA
:103E54008030F5068030F90679087502031D3C2F81
:103E640078087402031D3C2F77087302031D3C2F4E
:103E74007608720203183F2F402F422F0310432F5E
:103E84000314080083120313A000200803194B2F06
:103E94004C2F602FF51F4F2F502F602F7209A20057
:103EA4007309A3007409A4007509A500A20A0319E3
:103EB400A30A0319A40A0319A50A682F7508A50003
:103EC4007408A4007308A3007208A200750874049F
:103ED40073047204031D6F2F702F792F0030F500C7
:103EE4000030F4000030F3000030F200FF2F963071
:103EF400F6007608A1008B2F0130F6007608A107A2
:103F040001300310A50CA40CA30CA20CFF3E031D4E
:103F1400832FFE302505031D902F912F7E2FAD2F6B
:103F24000130F6007608A1070130A207003003181B
:103F34000130A307003003180130A4070030031830
:103F44000130A50701300310A50CA40CA30CA20C8E
:103F5400FF3E031DA52FFF302505031DB22FB32FF0
:103F6400922FBF2F0130A1020130F6000310A20DE1
:103F7400A30DA40DA50DF60BB82FA41BC22FC32FA0
:103F8400C92F023021020318C82FC92FB42F2118BA
:103F9400CC2FCD2FD52FFF30A205FF30A3057F30C6
:103FA400A405FF30A5050310A10C2108F600F701B4
:103FB400F801F90118300310F60DF70DF80DF90D9D
:103FC400FF3E031DDD2F7608A2047708A3047808BA
:103FD400A4047908A50420080319F12FF22FF72F60
:103FE400F51FF52FF62FF72FA5172508F500240840
:0C3FF400F4002308F3002208F20008008B
:04400E00D420FF3F7C
:00000001FF
