:020000040000FA
:060000000A128A11122809
:10000800FE00030EF6000408F7000A08F800831241
:1000180003137F08F9000A128A1108290A128A11A3
:100028001528F001F101F201F301F4018312031321
:10003800AE01AF0183010A128A1122288316031721
:10004800880189018316031385010330860087011F
:1000580088010430890070308F040F14811315143F
:100068009514161496140B1081128111073081040F
:100078003C30831203138100831603139F131F124E
:100088009F12831203131F139F171F08C3391C38AD
:100098009F00413083120313AD00AD0B5128542843
:1000A800831203131F148B178B150B108B160B1150
:1000B8009F14F401F101F00185018601870188018F
:1000C8008901740885009F186A286B2879281E08FA
:1000D800AD002D08F200203083120313AD00AD0BE4
:1000E80073280000831203139F1472080A128A11DE
:1000F80083210A128A1183120313AD002D08F1001F
:1001080072080A128A1152210A128A1183120313E1
:10011800AD002D08F00072087402031C942898287A
:100128008312031306179B288312031306136528EB
:100138000A128A11122883120313A601A11FA528E7
:10014800A628AD28A009A109A00A0319A10AA60199
:10015800A60AA31FB028B128BA28A209A309A20A8F
:100168000319A30A0130A4002408A606A701A801C0
:10017800200821040319C128C228F928A501A50AC5
:10018800D02801300310A00DA10DFF3E031DC62885
:100198000130A4002408A507A11FD328D428C52806
:1001A80001300310A70DA80DFF3E031DD528210817
:1001B8002302031DE12820082202031CE428E52865
:1001C800EC282008A2022108031CA303A302271479
:1001D80001300310A10CA00CFF3E031DED280130D7
:1001E800A502031DF828F928D42826080319FD2894
:1001F800FE280329A709A809A70A0319A80A280895
:10020800A1002708A00008000B1C0B290C291D2998
:1002180006180F29102915290130F5007508F4076B
:100228001B298618182919291B290130F4020B10DB
:1002380047290B1D20292129472988017303031DFC
:100248002629272933297108013E84000A128A11B8
:100258006D210A128A1187008814F3014429730852
:10026800031D3729382944297008013E84000A12E1
:100278008A116D210A128A1187000814F301F30A02
:100288000B113C3081007908FF0078088A00770854
:100298008400760E8300FE0E7E0E0900831203137F
:1002A800AC001030A0000030A1002C08A900AA0161
:1002B8002908A2002A08A3000A128A119F200A12FC
:1002C8008A118312031320080F39AB002B08AE00E4
:1002D800080001308A000408840A82070034FC34CC
:1002E8006034DA34F2346634B634BE34E034FE3482
:1002F800F634EE343E349C347A349E348E34831291
:100308000313A10021080F39A0002008AF0008003E
:04400E00D420FF3F7C
:00000001FF
