:020000040000FA
:060000000A128A110C280F
:10000800FE00030EF1000A08F2000A128A11B9294B
:100018000A128A110F2883120313B201B301B40123
:10002800B501B60183010A128A111A280A128A1127
:1000380061220A128A11831603178801890183161F
:1000480003138501033086008030870088017030F3
:100058008F040F14811315149514161496140B108D
:100068008B178B150B10F901F90A831203138501FD
:100078008601870188010808AF00B0012F08AB008E
:100088003008AC000A128A1135220A128A1183122A
:100098000313B1003108B9000808AF00B0012F08F8
:1000A800AB003008AC000A128A110F220A128A111A
:1000B80083120313B1003108B8000808AF00B0017B
:1000C8002F08A2003008A3000A128A11E5210A129B
:1000D8008A1183120313B1003108B7003030AF0022
:1000E8002F08B9073030AF002F08B8073030AF00FD
:1000F8002F08B7078C1E81288228F0280A128A1137
:1001080082220A128A1183120313AF002F08B40047
:1001180073303406031D91289228A82839080A123A
:100128008A1176220A128A118312031338080A12D6
:100138008A1176220A128A118312031337080A12C7
:100148008A1176220A128A1130308312031334027C
:10015800031CAF28B028F0283A3034020318B52819
:10016800B628F0283408AF003308353E84002F083D
:10017800831380000130AF002F08B3070330330228
:10018800031CC728C828F028B3016430AF002F0823
:10019800F4003508D03E0A128A114C220A128A113C
:1001A80083120313B0003008B2000A30AF002F08E2
:1001B800F4003608D03E0A128A114C220A128A111B
:1001C80083120313B0003008B2073708D03EAF00DF
:1001D8002F08B20732088500B4013F280A128A1195
:1001E8000C2883120313A801A31FFB28FC2803294A
:1001F800A209A309A20A0319A30AA801A80AA51F0C
:10020800062907291029A409A509A40A0319A50A7A
:100218000130A6002608A806A901AA01220823047D
:100228000319172918294F29A701A70A26290130D8
:100238000310A20DA30DFF3E031D1C290130A600CB
:100248002608A707A31F29292A291B2901300310DB
:10025800A90DAA0DFF3E031D2B2923082502031D06
:10026800372922082402031C3A293B29422922085B
:10027800A4022308031CA503A502291401300310B6
:10028800A30CA20CFF3E031D43290130A702031D46
:100298004E294F292A29280803195329542959294D
:1002A800A909AA09A90A0319AA0A2A08A300290858
:1002B800A200080083120313A101F71F642965290E
:1002C8006C29F609F709F60A0319F70AA101A10A28
:1002D800F51F6F2970297529F409F509F40A03191E
:1002E800F50A7408750403197A297B29AA29A0013B
:1002F800A00A892901300310F40DF50DFF3E031DF6
:100308007F290130F8007808A007F51F8C298D296E
:100318007E2975087702031D932974087602031C49
:10032800962997299D297408F6027508031CF70376
:10033800F70201300310F50CF40CFF3E031D9E2953
:100348000130A002031DA929AA298D292108031912
:10035800AE29AF29B429F609F709F60A0319F70AED
:100368007708F5007608F40008000B1CBC29BD29A5
:10037800DE29831203130618C229C329C8290130AC
:10038800F00070088807CE298618CB29CC29CE29F9
:1003980001308802F301061CD229D329D929861CE9
:1003A800D629D729D929F301F30A7308F000700870
:1003B800F9000B1072088A00710E8300FE0E7E0E83
:1003C8000900831203132308F7002208F60064309B
:1003D800F4000030F5000A128A115E210A128A110F
:1003E800750883120313A6007408A5000A30F400E8
:1003F8000030F5002608F7002508F6000A128A11D1
:100408005E210A128A11740883120313A4002408B7
:10041800A700270808000A3083120313A20000303F
:10042800A3002C08F7002B08F6006430F400003015
:10043800F5000A128A115E210A128A1175088312C0
:100448000313A5007408A4000A128A11F5200A12E1
:100458008A11831203132208AD002D08AE002E085E
:100468000800643083120313A2000030A3002C0894
:10047800A5002B08A4000A128A11F5200A128A1175
:10048800831203132208AD002D08AE002E080800C1
:10049800F700F601771C512A522A562A7408F500EB
:1004A8007508F6070310F40D0310F70C7708031D01
:1004B8005E2A5F2A4E2A760808008316031318124C
:1004C8001815831603178715CF3083160313990061
:1004D8009A01831203139817181318168316031317
:1004E80098160800F40083160313981C7C2A7D2AAA
:1004F800772A7408831203139900080083120313E0
:040508001A080800C5
:04400E00D420FF3F7C
:00000001FF
