:020000040000FA
:060000000A128A110C280F
:10000800FE00030EF1000A08F2000A128A113B28CA
:100018000A128A110F28F301F40183010A128A11C6
:1000280015280A128A1158200A128A1183160317F2
:10003800880189018316031385010330860087012F
:10004800880170308F040F14811315149514161439
:1000580096140B108B178B150B1083120313850145
:1000680086018701880137280A128A110C280B1C7F
:100078003E283F2851288312031306184428452890
:100088004A280130F00070088807502886184D2843
:100098004E285028013088020B1072088A00710E11
:1000A8008300FE0E7E0E090083160313181218151E
:1000B800831603178715CF308316031399009A0107
:1000C8008312031398171813181683160313981618
:0200D80008001E
:04400E00D420FF3F7C
:00000001FF
