:020000040000FA
:060000000A128A110C280F
:10000800FE00030EF1000A08F2000A128A111729ED
:100018000A128A110F28F701F801F901FA0183126F
:100028000313A001A101A201A30183010A128A11ED
:100038001D28831603178801890183160313850178
:100048000730860087018801890170308F040F14FA
:1000580081131514951415151614961416150B10EE
:1000680081128111073081043C308312031381000F
:100078008B178B150B108B160B11FA01A301A2011C
:10008800F901F801F70185018601870188018901D5
:100098002203031D50285128C528861706138612E7
:1000A800043084000A128A11CF210A128A118500AD
:1000B8000B3083120313A6002630A5005D30A40080
:1000C800A40B6428A50B6428A60B642803308400BD
:1000D8000A128A11CF210A128A118312031385008A
:1000E8000B3083120313A6002630A5005D30A40050
:1000F800A40B7C28A50B7C28A60B7C288312031351
:10010800861306178612023084000A128A11CF213C
:100118000A128A118500073083120313A6001730CC
:10012800A5006930A400A40B9728A50B9728A60B57
:1001380097289E2883120313861306138616013008
:1001480084000A128A11CF210A128A1185000B3005
:1001580083120313A6002630A5005D30A400A40B6B
:10016800B328A50BB328A60BB32883120313861351
:100178000613861285010130A4002408A207F9019C
:10018800F90A7903031DC928CA28DE2878080A1243
:100198008A117E210A128A11FF3A831203138700FB
:1001A80077080A128A117E210A128A11FF3A8312ED
:1001B8000313880008307806031DE328E428032980
:1001C800023084000A128A11CF210A128A1185008E
:1001D80009148910A201F901153083120313A6002E
:1001E8004B30A500BD30A400A40BF828A50BF828B7
:1001F800A60BF828FF288312031385014B28083023
:100208007706031D082909294C28033084000A129F
:100218008A11CF210A128A11850009108914EE2843
:100228000A128A110C280B1C1A291B295A29831215
:10023800031306182029212926290130F000700807
:10024800A2075829861829292A293F297903031D35
:100258002E292F293F290130F0007008A1070A3004
:100268002106031D3829392958290130F000700862
:10027800F807A10158290619422943295829790361
:10028800031D4729482958290130F0007008A007A4
:100298000A302006031D5129522958290130F0003F
:1002A8007008F707A00158290B1077290B1D5D2945
:1002B8005E2977290130F000700883120313A30721
:1002C80004302306031D69296A2974290130F000C6
:1002D8007008FA077A0A031D722973297429FA012A
:1002E8000B113C30810072088A00710E8300FE0EEB
:1002F8007E0E0900F500A829F601CD29F601F60AB7
:10030800CD290330F3007308F600CD290730F30038
:100318007308F600CD290F30F3007308F600CD29D5
:100328001F30F3007308F600CD293F30F30073083F
:10033800F600CD297F30F3007308F600CD29FF3091
:10034800F3007308F600CD297508F300F40174086A
:10035800003A0319B029CD297308003A03198029F6
:10036800013A03198229033A03198529013A031925
:100378008A29073A03198F29013A03199429033A5C
:1003880003199929013A03199E290F3A0319A32938
:10039800CD297608080001308A000408840A8207FB
:1003A8000034FC346034DA34F2346634B634BE34A3
:0603B800E034FE34F634CF
:04400E00D420FF3F7C
:00000001FF
