:020000040000FA
:060000000A128A110C280F
:10000800FE00030EF1000A08F2000A128A116B2999
:100018000A128A110F28F701F801F901FA0183126F
:100028000313A001A101A201A30183010A128A11ED
:100038001D28831603178801890183160313850178
:100048000730860087018801890170308F040F14FA
:1000580081131514951415151614961416150B10EE
:100068008B178B150B1083120313A301A201FA013E
:10007800F901F801F70185018601870188018901E5
:100088007A03031D48284928BF28831203138617BB
:1000980006138612043084000A128A11B4210A1247
:1000A8008A1185000B3083120313A6002630A500A1
:1000B8005D30A400A40B5E28A50B5E28A60B5E2865
:1000C800033084000A128A11B4210A128A11831299
:1000D800031385000B3083120313A6002630A500F6
:1000E8005D30A400A40B7628A50B7628A60B7628ED
:1000F80083120313861306178612023084000A122D
:100108008A11B4210A128A11850007308312031359
:10011800A6001730A5006930A400A40B9128A50BF0
:100128009128A60B91289828831203138613061387
:100138008616013084000A128A11B4210A128A1123
:1001480085000B3083120313A6002630A5005D300E
:10015800A400A40BAD28A50BAD28A60BAD288312CF
:10016800031386130613861285010130A4002408A0
:10017800FA07F901F90A7903031DC328C428D82806
:1001880078080A128A111A210A128A11FF3A831270
:100198000313870077080A128A111A210A128A1192
:1001A800FF3A83120313880008307806031DDD2800
:1001B800DE280429023084000A128A11B4210A12A6
:1001C8008A118312031385000914891015308312CC
:1001D8000313A6004B30A500BD30A400A40BF228E1
:1001E800A50BF228A60BF228F928FA01F901F80163
:1001F800F7018312031385018901870188014428C7
:1002080008307706031D09290A2944280330840089
:100218000A128A11B4210A128A1183120313850063
:1002280009108914EA280A128A110C28F5004429B1
:10023800F6016929F601F60A69290330F300730803
:10024800F60069290730F3007308F60069290F30B2
:10025800F3007308F60069291F30F3007308F600ED
:1002680069293F30F3007308F60069297F30F300ED
:100278007308F6006929FF30F3007308F60069294E
:100288007508F300F4017408003A03194C29692928
:100298007308003A03191C29013A03191E29033A65
:1002A80003192129013A03192629073A03192B2989
:1002B800013A03193029033A03193529013A031978
:1002C8003A290F3A03193F296929760808000B1CB7
:1002D8006E296F29AD29831203130618742975290D
:1002E8007A290130F0007008FA07AC2986187D29B0
:1002F8007E2993297903031D8229832993290130B3
:10030800F0007008A1070A302106031D8C298D29E9
:10031800AC290130F0007008F807A101AC290619D2
:1003280096299729AC297903031D9B299C29AC2977
:100338000130F0007008A0070A302006031DA52927
:10034800A629AC290130F0007008F707A001AC29F4
:100358000B1072088A00710E8300FE0E7E0E0900D3
:1003680001308A000408840A82070034FC346034AF
:10037800DA34F2346634B634BE34E034FE34F6345B
:04400E00D420FF3F7C
:00000001FF
