:020000040000FA
:060000000A128A110C280F
:10000800FE00030EF0000A08F1000A128A11842A81
:100018000A128A110F28FA01FB0183120313A8019F
:10002800A901AA01AB01AC0183010A128A111C289B
:100038000A128A11EA200A128A11603083160317FD
:1000480088008901033083160313890070308F04F8
:100058000F149F131F129F12831203131F139F174E
:100068001F08C3391C389F00413083120313A500B1
:10007800A50B3C283F28831203131F149F14AB01C0
:10008800AA01A901A8018701880189018312031324
:100098009F184F285028A9281F0CA500250C0F3998
:1000A800063A031D5828592878281E08A50025084F
:1000B800FA001F08C33914389F007A080A128A11F7
:1000C8007C220A128A1183120313A5002508AB00AB
:1000D8007A080A128A1119220A128A118312031342
:1000E800A5002508AA009F281F0CA500250C0F397C
:1000F800053A031D802881289F281E08A500250889
:10010800FA001F08C33918389F007A080A128A11A2
:100118007C220A128A1183120313A5002508A9005C
:100128007A080A128A1119220A128A1183120313F1
:10013800A5002508A800203083120313A500A50BED
:10014800A3280000831203139F14F40100300A123D
:100158008A1150220A128A1111300A128A11F521C5
:100168000A128A11023083120313A7000430A60072
:10017800B930A500A50BBE28A60BBE28A70BBE2824
:10018800C528093083120313A5002508F40001309F
:100198000A128A1150220A128A111B300A128A1175
:1001A800F5210A128A11023083120313A7000430C2
:1001B800A600B930A500A50BDF28A60BDF28A70BE2
:1001C800DF28E6284A280A128A110C28831203130A
:1001D8008801831603138801871207138713831274
:1001E80003138712071387132A30F5008D30F400A4
:1001F800F40BFC28F50BFC28012930300A128A116F
:1002080066220A128A110D30F500FB30F400F40B57
:100218000B29F50B0B29102930300A128A11662296
:100228000A128A114230F400F40B18290000303009
:100238000A128A1166220A128A114230F400F40B5B
:100248002329000038300A128A1166220A128A11FC
:100258004230F400F40B2E29000008300A128A11EB
:1002680066220A128A114230F400F40B3929000080
:1002780001300A128A1166220A128A114230F400E9
:10028800F40B4429000004300A128A1166220A126B
:100298008A114230F400F40B4F2900004230F40078
:1002A800F40B5429000006300A128A1166220A1239
:1002B8008A110C300A128A1166220A128A11080061
:1002C80083120313A101F31F6A296B297229F2090A
:1002D800F309F20A0319F30AA101A10AF51F752906
:1002E80076297F29F409F509F40A0319F50A01307A
:1002F800F6007608A106A201A30172087304031987
:1003080086298729BE29A001A00A95290130031052
:10031800F20DF30DFF3E031D8B290130F600760820
:10032800A007F31F982999298A2901300310A20DE3
:10033800A30DFF3E031D9A2973087502031DA62904
:1003480072087402031CA929AA29B1297208F402A7
:100358007308031CF503F502221401300310F30C93
:10036800F20CFF3E031DB2290130A002031DBD2976
:10037800BE29992921080319C229C329C829A20914
:10038800A309A20A0319A30A2308F3002208F2000A
:10039800080001308A000408840A82070034FC340B
:1003A8006034DA34F2346634B634BE34E034FE34C1
:1003B800F634EE343E349C347A349E348E347634BB
:1003C800653461346D346F34733420343A342934ED
:1003D800003477346F3477346F3477346F3477344C
:1003E8000034F5000C2A4230F400F40BF92900001F
:1003F800750884000A128A11CD210A128A110A127C
:100408008A1135220A128A110130F4007408F5079E
:10041800750884000A128A11CD210A128A11003A3D
:10042800031D172A182AF729080083120313A400AA
:100438001030F2000030F3002408F700F8017708C4
:10044800F4007808F5000A128A1164210A128A1148
:1004580072080F39F900790883120313AC002C08CD
:100468000800F3004230F200F20B382A000073084B
:10047800831203138800071387160D30F200F20B5E
:10048800432A8312031387170D30F200F20B4A2A0E
:100498008312031387130800F50075080319552AFA
:1004A800562A5E2A7408C03E0A128A1166220A1267
:1004B8008A11652A7408803E0A128A1166220A1275
:1004C8008A110800F3007308831203138800871247
:1004D80007130D30F200F20B6F2A831203138717EC
:1004E8000D30F200F20B762A8312031387130800EB
:1004F800F30073080F39F2007208FB007B0808004C
:0E05080071088A00700E8300FE0E7E0E090040
:04400E00D420FF3F7C
:00000001FF
